{
  "contractName": "AgriSupplyChain",
  "abi": [
    {
      "inputs": [],
      "stateMutability": "nonpayable",
      "type": "constructor"
    },
    {
      "anonymous": false,
      "inputs": [
        {
          "indexed": false,
          "internalType": "uint256",
          "name": "productId",
          "type": "uint256"
        },
        {
          "indexed": false,
          "internalType": "string",
          "name": "name",
          "type": "string"
        },
        {
          "indexed": false,
          "internalType": "uint256",
          "name": "price",
          "type": "uint256"
        },
        {
          "indexed": false,
          "internalType": "address",
          "name": "farmer",
          "type": "address"
        }
      ],
      "name": "ProductCreated",
      "type": "event"
    },
    {
      "anonymous": false,
      "inputs": [
        {
          "indexed": false,
          "internalType": "uint256",
          "name": "productId",
          "type": "uint256"
        },
        {
          "indexed": false,
          "internalType": "enum AgriSupplyChain.ProductState",
          "name": "newState",
          "type": "uint8"
        }
      ],
      "name": "ProductStateChanged",
      "type": "event"
    },
    {
      "inputs": [],
      "name": "productCount",
      "outputs": [
        {
          "internalType": "uint256",
          "name": "",
          "type": "uint256"
        }
      ],
      "stateMutability": "view",
      "type": "function",
      "constant": true
    },
    {
      "inputs": [
        {
          "internalType": "uint256",
          "name": "",
          "type": "uint256"
        }
      ],
      "name": "products",
      "outputs": [
        {
          "internalType": "uint256",
          "name": "id",
          "type": "uint256"
        },
        {
          "internalType": "string",
          "name": "name",
          "type": "string"
        },
        {
          "internalType": "uint256",
          "name": "price",
          "type": "uint256"
        },
        {
          "internalType": "address",
          "name": "farmer",
          "type": "address"
        },
        {
          "internalType": "address",
          "name": "collector",
          "type": "address"
        },
        {
          "internalType": "address",
          "name": "transporter",
          "type": "address"
        },
        {
          "internalType": "address",
          "name": "distributor",
          "type": "address"
        },
        {
          "internalType": "address",
          "name": "retailer",
          "type": "address"
        },
        {
          "internalType": "address",
          "name": "consumer",
          "type": "address"
        },
        {
          "internalType": "enum AgriSupplyChain.ProductState",
          "name": "state",
          "type": "uint8"
        },
        {
          "internalType": "bool",
          "name": "isValid",
          "type": "bool"
        }
      ],
      "stateMutability": "view",
      "type": "function",
      "constant": true
    },
    {
      "inputs": [
        {
          "internalType": "address",
          "name": "",
          "type": "address"
        }
      ],
      "name": "userRoles",
      "outputs": [
        {
          "internalType": "string",
          "name": "",
          "type": "string"
        }
      ],
      "stateMutability": "view",
      "type": "function",
      "constant": true
    },
    {
      "inputs": [
        {
          "internalType": "address",
          "name": "_user",
          "type": "address"
        },
        {
          "internalType": "string",
          "name": "_role",
          "type": "string"
        }
      ],
      "name": "registerUser",
      "outputs": [],
      "stateMutability": "nonpayable",
      "type": "function"
    },
    {
      "inputs": [
        {
          "internalType": "string",
          "name": "_name",
          "type": "string"
        },
        {
          "internalType": "uint256",
          "name": "_price",
          "type": "uint256"
        }
      ],
      "name": "createProduct",
      "outputs": [],
      "stateMutability": "nonpayable",
      "type": "function"
    },
    {
      "inputs": [
        {
          "internalType": "uint256",
          "name": "_productId",
          "type": "uint256"
        }
      ],
      "name": "collectProduct",
      "outputs": [],
      "stateMutability": "nonpayable",
      "type": "function"
    },
    {
      "inputs": [
        {
          "internalType": "uint256",
          "name": "_productId",
          "type": "uint256"
        }
      ],
      "name": "transportProduct",
      "outputs": [],
      "stateMutability": "nonpayable",
      "type": "function"
    },
    {
      "inputs": [
        {
          "internalType": "uint256",
          "name": "_productId",
          "type": "uint256"
        }
      ],
      "name": "distributeProduct",
      "outputs": [],
      "stateMutability": "nonpayable",
      "type": "function"
    },
    {
      "inputs": [
        {
          "internalType": "uint256",
          "name": "_productId",
          "type": "uint256"
        }
      ],
      "name": "sendToRetailer",
      "outputs": [],
      "stateMutability": "nonpayable",
      "type": "function"
    },
    {
      "inputs": [
        {
          "internalType": "uint256",
          "name": "_productId",
          "type": "uint256"
        }
      ],
      "name": "purchaseProduct",
      "outputs": [],
      "stateMutability": "nonpayable",
      "type": "function"
    },
    {
      "inputs": [
        {
          "internalType": "uint256",
          "name": "_productId",
          "type": "uint256"
        }
      ],
      "name": "getProduct",
      "outputs": [
        {
          "internalType": "uint256",
          "name": "id",
          "type": "uint256"
        },
        {
          "internalType": "string",
          "name": "name",
          "type": "string"
        },
        {
          "internalType": "uint256",
          "name": "price",
          "type": "uint256"
        },
        {
          "internalType": "address",
          "name": "farmer",
          "type": "address"
        },
        {
          "internalType": "address",
          "name": "collector",
          "type": "address"
        },
        {
          "internalType": "address",
          "name": "transporter",
          "type": "address"
        },
        {
          "internalType": "address",
          "name": "distributor",
          "type": "address"
        },
        {
          "internalType": "address",
          "name": "retailer",
          "type": "address"
        },
        {
          "internalType": "address",
          "name": "consumer",
          "type": "address"
        },
        {
          "internalType": "enum AgriSupplyChain.ProductState",
          "name": "state",
          "type": "uint8"
        }
      ],
      "stateMutability": "view",
      "type": "function",
      "constant": true
    }
  ],
  "bytecode": "0x60806040523480156200001157600080fd5b5060006001819055506040518060400160405280600581526020017f41444d494e000000000000000000000000000000000000000000000000000000815250600260003373ffffffffffffffffffffffffffffffffffffffff1673ffffffffffffffffffffffffffffffffffffffff1681526020019081526020016000209080519060200190620000a492919062000130565b506000600260003373ffffffffffffffffffffffffffffffffffffffff1673ffffffffffffffffffffffffffffffffffffffff1681526020019081526020016000208054620000f390620001e0565b9050116200012a577f4e487b7100000000000000000000000000000000000000000000000000000000600052600160045260246000fd5b62000245565b8280546200013e90620001e0565b90600052602060002090601f016020900481019282620001625760008555620001ae565b82601f106200017d57805160ff1916838001178555620001ae565b82800160010185558215620001ae579182015b82811115620001ad57825182559160200191906001019062000190565b5b509050620001bd9190620001c1565b5090565b5b80821115620001dc576000816000905550600101620001c2565b5090565b60006002820490506001821680620001f957607f821691505b6020821081141562000210576200020f62000216565b5b50919050565b7f4e487b7100000000000000000000000000000000000000000000000000000000600052602260045260246000fd5b612b4380620002556000396000f3fe608060405234801561001057600080fd5b50600436106100a95760003560e01c806374d5e1001161007157806374d5e1001461013a5780637acc0b201461016a578063b9db15b4146101a4578063e0f6ef87146101dd578063e749ac5f146101fb578063e9300c6c14610217576100a9565b806308acb8de146100ae5780630e4000db146100ca5780630ea126f9146100e657806338e76a0314610102578063468dbf981461011e575b600080fd5b6100c860048036038101906100c39190612058565b610233565b005b6100e460048036038101906100df9190612058565b61055c565b005b61010060048036038101906100fb9190611fb0565b610885565b005b61011c60048036038101906101179190612058565b610a04565b005b61013860048036038101906101339190612058565b610c30565b005b610154600480360381019061014f9190611f87565b610fbb565b60405161016191906124f0565b60405180910390f35b610184600480360381019061017f9190612058565b61105b565b60405161019b9b9a99989796959493929190612785565b60405180910390f35b6101be60048036038101906101b99190612058565b611217565b6040516101d49a999897969594939291906126e2565b60405180910390f35b6101e56115eb565b6040516101f29190612652565b60405180910390f35b61021560048036038101906102109190612058565b6115f1565b005b610231600480360381019061022c9190612004565b61191a565b005b6000600260003373ffffffffffffffffffffffffffffffffffffffff1673ffffffffffffffffffffffffffffffffffffffff168152602001908152602001600020805461027f90612983565b9050116102c1576040517f08c379a00000000000000000000000000000000000000000000000000000000081526004016102b890612572565b60405180910390fd5b6040518060400160405280600881526020017f52455441494c455200000000000000000000000000000000000000000000000081525080519060200120600260003373ffffffffffffffffffffffffffffffffffffffff1673ffffffffffffffffffffffffffffffffffffffff16815260200190815260200160002060405161034a91906124d9565b604051809103902014610392576040517f08c379a000000000000000000000000000000000000000000000000000000000815260040161038990612512565b60405180910390fd5b600360058111156103cc577f4e487b7100000000000000000000000000000000000000000000000000000000600052602160045260246000fd5b60008083815260200190815260200160002060080160149054906101000a900460ff166005811115610427577f4e487b7100000000000000000000000000000000000000000000000000000000600052602160045260246000fd5b14610467576040517f08c379a000000000000000000000000000000000000000000000000000000000815260040161045e90612632565b60405180910390fd5b3360008083815260200190815260200160002060070160006101000a81548173ffffffffffffffffffffffffffffffffffffffff021916908373ffffffffffffffffffffffffffffffffffffffff160217905550600460008083815260200190815260200160002060080160146101000a81548160ff0219169083600581111561051a577f4e487b7100000000000000000000000000000000000000000000000000000000600052602160045260246000fd5b02179055507fdf7efc9f6f5bce44cbf5db3d8362387f6d02e0566c37fb4ed10cd3d05b35ecad81600460405161055192919061266d565b60405180910390a150565b6000600260003373ffffffffffffffffffffffffffffffffffffffff1673ffffffffffffffffffffffffffffffffffffffff16815260200190815260200160002080546105a890612983565b9050116105ea576040517f08c379a00000000000000000000000000000000000000000000000000000000081526004016105e190612572565b60405180910390fd5b6040518060400160405280600b81526020017f4449535452494255544f5200000000000000000000000000000000000000000081525080519060200120600260003373ffffffffffffffffffffffffffffffffffffffff1673ffffffffffffffffffffffffffffffffffffffff16815260200190815260200160002060405161067391906124d9565b6040518091039020146106bb576040517f08c379a00000000000000000000000000000000000000000000000000000000081526004016106b2906125d2565b60405180910390fd5b600260058111156106f5577f4e487b7100000000000000000000000000000000000000000000000000000000600052602160045260246000fd5b60008083815260200190815260200160002060080160149054906101000a900460ff166005811115610750577f4e487b7100000000000000000000000000000000000000000000000000000000600052602160045260246000fd5b14610790576040517f08c379a000000000000000000000000000000000000000000000000000000000815260040161078790612632565b60405180910390fd5b3360008083815260200190815260200160002060060160006101000a81548173ffffffffffffffffffffffffffffffffffffffff021916908373ffffffffffffffffffffffffffffffffffffffff160217905550600360008083815260200190815260200160002060080160146101000a81548160ff02191690836005811115610843577f4e487b7100000000000000000000000000000000000000000000000000000000600052602160045260246000fd5b02179055507fdf7efc9f6f5bce44cbf5db3d8362387f6d02e0566c37fb4ed10cd3d05b35ecad81600360405161087a92919061266d565b60405180910390a150565b6040518060400160405280600581526020017f41444d494e00000000000000000000000000000000000000000000000000000081525080519060200120600260003373ffffffffffffffffffffffffffffffffffffffff1673ffffffffffffffffffffffffffffffffffffffff16815260200190815260200160002060405161090e91906124d9565b6040518091039020148061096d57506000600260008473ffffffffffffffffffffffffffffffffffffffff1673ffffffffffffffffffffffffffffffffffffffff168152602001908152602001600020805461096990612983565b9050145b6109ac576040517f08c379a00000000000000000000000000000000000000000000000000000000081526004016109a390612612565b60405180910390fd5b80600260008473ffffffffffffffffffffffffffffffffffffffff1673ffffffffffffffffffffffffffffffffffffffff16815260200190815260200160002090805190602001906109ff929190611e52565b505050565b60046005811115610a3e577f4e487b7100000000000000000000000000000000000000000000000000000000600052602160045260246000fd5b60008083815260200190815260200160002060080160149054906101000a900460ff166005811115610a99577f4e487b7100000000000000000000000000000000000000000000000000000000600052602160045260246000fd5b14610ad9576040517f08c379a0000000000000000000000000000000000000000000000000000000008152600401610ad0906125f2565b60405180910390fd5b60008082815260200190815260200160002060080160159054906101000a900460ff16610b3b576040517f08c379a0000000000000000000000000000000000000000000000000000000008152600401610b3290612532565b60405180910390fd5b3360008083815260200190815260200160002060080160006101000a81548173ffffffffffffffffffffffffffffffffffffffff021916908373ffffffffffffffffffffffffffffffffffffffff160217905550600560008083815260200190815260200160002060080160146101000a81548160ff02191690836005811115610bee577f4e487b7100000000000000000000000000000000000000000000000000000000600052602160045260246000fd5b02179055507fdf7efc9f6f5bce44cbf5db3d8362387f6d02e0566c37fb4ed10cd3d05b35ecad816005604051610c2592919061266d565b60405180910390a150565b6000600260003373ffffffffffffffffffffffffffffffffffffffff1673ffffffffffffffffffffffffffffffffffffffff1681526020019081526020016000208054610c7c90612983565b905011610cbe576040517f08c379a0000000000000000000000000000000000000000000000000000000008152600401610cb590612572565b60405180910390fd5b6040518060400160405280600981526020017f434f4c4c4543544f52000000000000000000000000000000000000000000000081525080519060200120600260003373ffffffffffffffffffffffffffffffffffffffff1673ffffffffffffffffffffffffffffffffffffffff168152602001908152602001600020604051610d4791906124d9565b604051809103902014610d8f576040517f08c379a0000000000000000000000000000000000000000000000000000000008152600401610d8690612592565b60405180910390fd5b60008082815260200190815260200160002060080160159054906101000a900460ff16610df1576040517f08c379a0000000000000000000000000000000000000000000000000000000008152600401610de890612532565b60405180910390fd5b60006005811115610e2b577f4e487b7100000000000000000000000000000000000000000000000000000000600052602160045260246000fd5b60008083815260200190815260200160002060080160149054906101000a900460ff166005811115610e86577f4e487b7100000000000000000000000000000000000000000000000000000000600052602160045260246000fd5b14610ec6576040517f08c379a0000000000000000000000000000000000000000000000000000000008152600401610ebd90612632565b60405180910390fd5b3360008083815260200190815260200160002060040160006101000a81548173ffffffffffffffffffffffffffffffffffffffff021916908373ffffffffffffffffffffffffffffffffffffffff160217905550600160008083815260200190815260200160002060080160146101000a81548160ff02191690836005811115610f79577f4e487b7100000000000000000000000000000000000000000000000000000000600052602160045260246000fd5b02179055507fdf7efc9f6f5bce44cbf5db3d8362387f6d02e0566c37fb4ed10cd3d05b35ecad816001604051610fb092919061266d565b60405180910390a150565b60026020528060005260406000206000915090508054610fda90612983565b80601f016020809104026020016040519081016040528092919081815260200182805461100690612983565b80156110535780601f1061102857610100808354040283529160200191611053565b820191906000526020600020905b81548152906001019060200180831161103657829003601f168201915b505050505081565b600060205280600052604060002060009150905080600001549080600101805461108490612983565b80601f01602080910402602001604051908101604052809291908181526020018280546110b090612983565b80156110fd5780601f106110d2576101008083540402835291602001916110fd565b820191906000526020600020905b8154815290600101906020018083116110e057829003601f168201915b5050505050908060020154908060030160009054906101000a900473ffffffffffffffffffffffffffffffffffffffff16908060040160009054906101000a900473ffffffffffffffffffffffffffffffffffffffff16908060050160009054906101000a900473ffffffffffffffffffffffffffffffffffffffff16908060060160009054906101000a900473ffffffffffffffffffffffffffffffffffffffff16908060070160009054906101000a900473ffffffffffffffffffffffffffffffffffffffff16908060080160009054906101000a900473ffffffffffffffffffffffffffffffffffffffff16908060080160149054906101000a900460ff16908060080160159054906101000a900460ff1690508b565b6000606060008060008060008060008060008060008d8152602001908152602001600020604051806101600160405290816000820154815260200160018201805461126190612983565b80601f016020809104026020016040519081016040528092919081815260200182805461128d90612983565b80156112da5780601f106112af576101008083540402835291602001916112da565b820191906000526020600020905b8154815290600101906020018083116112bd57829003601f168201915b50505050508152602001600282015481526020016003820160009054906101000a900473ffffffffffffffffffffffffffffffffffffffff1673ffffffffffffffffffffffffffffffffffffffff1673ffffffffffffffffffffffffffffffffffffffff1681526020016004820160009054906101000a900473ffffffffffffffffffffffffffffffffffffffff1673ffffffffffffffffffffffffffffffffffffffff1673ffffffffffffffffffffffffffffffffffffffff1681526020016005820160009054906101000a900473ffffffffffffffffffffffffffffffffffffffff1673ffffffffffffffffffffffffffffffffffffffff1673ffffffffffffffffffffffffffffffffffffffff1681526020016006820160009054906101000a900473ffffffffffffffffffffffffffffffffffffffff1673ffffffffffffffffffffffffffffffffffffffff1673ffffffffffffffffffffffffffffffffffffffff1681526020016007820160009054906101000a900473ffffffffffffffffffffffffffffffffffffffff1673ffffffffffffffffffffffffffffffffffffffff1673ffffffffffffffffffffffffffffffffffffffff1681526020016008820160009054906101000a900473ffffffffffffffffffffffffffffffffffffffff1673ffffffffffffffffffffffffffffffffffffffff1673ffffffffffffffffffffffffffffffffffffffff1681526020016008820160149054906101000a900460ff16600581111561153c577f4e487b7100000000000000000000000000000000000000000000000000000000600052602160045260246000fd5b6005811115611574577f4e487b7100000000000000000000000000000000000000000000000000000000600052602160045260246000fd5b81526020016008820160159054906101000a900460ff1615151515815250509050806000015181602001518260400151836060015184608001518560a001518660c001518760e001518861010001518961012001519a509a509a509a509a509a509a509a509a509a50509193959799509193959799565b60015481565b6000600260003373ffffffffffffffffffffffffffffffffffffffff1673ffffffffffffffffffffffffffffffffffffffff168152602001908152602001600020805461163d90612983565b90501161167f576040517f08c379a000000000000000000000000000000000000000000000000000000000815260040161167690612572565b60405180910390fd5b6040518060400160405280600b81526020017f5452414e53504f5254455200000000000000000000000000000000000000000081525080519060200120600260003373ffffffffffffffffffffffffffffffffffffffff1673ffffffffffffffffffffffffffffffffffffffff16815260200190815260200160002060405161170891906124d9565b604051809103902014611750576040517f08c379a0000000000000000000000000000000000000000000000000000000008152600401611747906125b2565b60405180910390fd5b6001600581111561178a577f4e487b7100000000000000000000000000000000000000000000000000000000600052602160045260246000fd5b60008083815260200190815260200160002060080160149054906101000a900460ff1660058111156117e5577f4e487b7100000000000000000000000000000000000000000000000000000000600052602160045260246000fd5b14611825576040517f08c379a000000000000000000000000000000000000000000000000000000000815260040161181c90612632565b60405180910390fd5b3360008083815260200190815260200160002060050160006101000a81548173ffffffffffffffffffffffffffffffffffffffff021916908373ffffffffffffffffffffffffffffffffffffffff160217905550600260008083815260200190815260200160002060080160146101000a81548160ff021916908360058111156118d8577f4e487b7100000000000000000000000000000000000000000000000000000000600052602160045260246000fd5b02179055507fdf7efc9f6f5bce44cbf5db3d8362387f6d02e0566c37fb4ed10cd3d05b35ecad81600260405161190f92919061266d565b60405180910390a150565b6000600260003373ffffffffffffffffffffffffffffffffffffffff1673ffffffffffffffffffffffffffffffffffffffff168152602001908152602001600020805461196690612983565b9050116119a8576040517f08c379a000000000000000000000000000000000000000000000000000000000815260040161199f90612572565b60405180910390fd5b6040518060400160405280600681526020017f4641524d4552000000000000000000000000000000000000000000000000000081525080519060200120600260003373ffffffffffffffffffffffffffffffffffffffff1673ffffffffffffffffffffffffffffffffffffffff168152602001908152602001600020604051611a3191906124d9565b604051809103902014611a79576040517f08c379a0000000000000000000000000000000000000000000000000000000008152600401611a7090612552565b60405180910390fd5b60016000815480929190611a8c906129b5565b919050555060405180610160016040528060015481526020018381526020018281526020013373ffffffffffffffffffffffffffffffffffffffff168152602001600073ffffffffffffffffffffffffffffffffffffffff168152602001600073ffffffffffffffffffffffffffffffffffffffff168152602001600073ffffffffffffffffffffffffffffffffffffffff168152602001600073ffffffffffffffffffffffffffffffffffffffff168152602001600073ffffffffffffffffffffffffffffffffffffffff16815260200160006005811115611b98577f4e487b7100000000000000000000000000000000000000000000000000000000600052602160045260246000fd5b8152602001600115158152506000806001548152602001908152602001600020600082015181600001556020820151816001019080519060200190611bde929190611e52565b506040820151816002015560608201518160030160006101000a81548173ffffffffffffffffffffffffffffffffffffffff021916908373ffffffffffffffffffffffffffffffffffffffff16021790555060808201518160040160006101000a81548173ffffffffffffffffffffffffffffffffffffffff021916908373ffffffffffffffffffffffffffffffffffffffff16021790555060a08201518160050160006101000a81548173ffffffffffffffffffffffffffffffffffffffff021916908373ffffffffffffffffffffffffffffffffffffffff16021790555060c08201518160060160006101000a81548173ffffffffffffffffffffffffffffffffffffffff021916908373ffffffffffffffffffffffffffffffffffffffff16021790555060e08201518160070160006101000a81548173ffffffffffffffffffffffffffffffffffffffff021916908373ffffffffffffffffffffffffffffffffffffffff1602179055506101008201518160080160006101000a81548173ffffffffffffffffffffffffffffffffffffffff021916908373ffffffffffffffffffffffffffffffffffffffff1602179055506101208201518160080160146101000a81548160ff02191690836005811115611de6577f4e487b7100000000000000000000000000000000000000000000000000000000600052602160045260246000fd5b02179055506101408201518160080160156101000a81548160ff0219169083151502179055509050507f2e87df3c8f53fb06266ed52023929f5fab9f24130224ef6538b665d9cac82530600154838333604051611e469493929190612696565b60405180910390a15050565b828054611e5e90612983565b90600052602060002090601f016020900481019282611e805760008555611ec7565b82601f10611e9957805160ff1916838001178555611ec7565b82800160010185558215611ec7579182015b82811115611ec6578251825591602001919060010190611eab565b5b509050611ed49190611ed8565b5090565b5b80821115611ef1576000816000905550600101611ed9565b5090565b6000611f08611f0384612868565b612837565b905082815260208101848484011115611f2057600080fd5b611f2b848285612941565b509392505050565b600081359050611f4281612adf565b92915050565b600082601f830112611f5957600080fd5b8135611f69848260208601611ef5565b91505092915050565b600081359050611f8181612af6565b92915050565b600060208284031215611f9957600080fd5b6000611fa784828501611f33565b91505092915050565b60008060408385031215611fc357600080fd5b6000611fd185828601611f33565b925050602083013567ffffffffffffffff811115611fee57600080fd5b611ffa85828601611f48565b9150509250929050565b6000806040838503121561201757600080fd5b600083013567ffffffffffffffff81111561203157600080fd5b61203d85828601611f48565b925050602061204e85828601611f72565b9150509250929050565b60006020828403121561206a57600080fd5b600061207884828501611f72565b91505092915050565b61208a816128d4565b82525050565b612099816128e6565b82525050565b600081546120ac81612983565b6120b681866128b8565b945060018216600081146120d157600181146120e257612115565b60ff19831686528186019350612115565b6120eb85612898565b60005b8381101561210d578154818901526001820191506020810190506120ee565b838801955050505b50505092915050565b6121278161292f565b82525050565b6000612138826128ad565b61214281856128c3565b9350612152818560208601612950565b61215b81612aba565b840191505092915050565b60006121736023836128c3565b91507f4f6e6c792072657461696c6572732063616e20726563656976652070726f647560008301527f63747300000000000000000000000000000000000000000000000000000000006020830152604082019050919050565b60006121d96016836128c3565b91507f50726f6475637420646f6573206e6f74206578697374000000000000000000006000830152602082019050919050565b60006122196020836128c3565b91507f4f6e6c79206661726d6572732063616e206372656174652070726f64756374736000830152602082019050919050565b60006122596013836128c3565b91507f55736572206e6f742072656769737465726564000000000000000000000000006000830152602082019050919050565b60006122996024836128c3565b91507f4f6e6c7920636f6c6c6563746f72732063616e20636f6c6c6563742070726f6460008301527f75637473000000000000000000000000000000000000000000000000000000006020830152604082019050919050565b60006122ff6028836128c3565b91507f4f6e6c79207472616e73706f72746572732063616e207472616e73706f72742060008301527f70726f64756374730000000000000000000000000000000000000000000000006020830152604082019050919050565b60006123656026836128c3565b91507f4f6e6c79206469737472696275746f72732063616e207265636569766520707260008301527f6f647563747300000000000000000000000000000000000000000000000000006020830152604082019050919050565b60006123cb6022836128c3565b91507f50726f64756374206e6f7420617661696c61626c6520666f722070757263686160008301527f73650000000000000000000000000000000000000000000000000000000000006020830152604082019050919050565b60006124316027836128c3565b91507f556e617574686f72697a6564206f72207573657220616c72656164792072656760008301527f69737465726564000000000000000000000000000000000000000000000000006020830152604082019050919050565b6000612497601c836128c3565b91507f50726f64756374206e6f7420696e20636f7272656374207374617465000000006000830152602082019050919050565b6124d381612925565b82525050565b60006124e5828461209f565b915081905092915050565b6000602082019050818103600083015261250a818461212d565b905092915050565b6000602082019050818103600083015261252b81612166565b9050919050565b6000602082019050818103600083015261254b816121cc565b9050919050565b6000602082019050818103600083015261256b8161220c565b9050919050565b6000602082019050818103600083015261258b8161224c565b9050919050565b600060208201905081810360008301526125ab8161228c565b9050919050565b600060208201905081810360008301526125cb816122f2565b9050919050565b600060208201905081810360008301526125eb81612358565b9050919050565b6000602082019050818103600083015261260b816123be565b9050919050565b6000602082019050818103600083015261262b81612424565b9050919050565b6000602082019050818103600083015261264b8161248a565b9050919050565b600060208201905061266760008301846124ca565b92915050565b600060408201905061268260008301856124ca565b61268f602083018461211e565b9392505050565b60006080820190506126ab60008301876124ca565b81810360208301526126bd818661212d565b90506126cc60408301856124ca565b6126d96060830184612081565b95945050505050565b6000610140820190506126f8600083018d6124ca565b818103602083015261270a818c61212d565b9050612719604083018b6124ca565b612726606083018a612081565b6127336080830189612081565b61274060a0830188612081565b61274d60c0830187612081565b61275a60e0830186612081565b612768610100830185612081565b61277661012083018461211e565b9b9a5050505050505050505050565b60006101608201905061279b600083018e6124ca565b81810360208301526127ad818d61212d565b90506127bc604083018c6124ca565b6127c9606083018b612081565b6127d6608083018a612081565b6127e360a0830189612081565b6127f060c0830188612081565b6127fd60e0830187612081565b61280b610100830186612081565b61281961012083018561211e565b612827610140830184612090565b9c9b505050505050505050505050565b6000604051905081810181811067ffffffffffffffff8211171561285e5761285d612a8b565b5b8060405250919050565b600067ffffffffffffffff82111561288357612882612a8b565b5b601f19601f8301169050602081019050919050565b60008190508160005260206000209050919050565b600081519050919050565b600081905092915050565b600082825260208201905092915050565b60006128df82612905565b9050919050565b60008115159050919050565b600081905061290082612acb565b919050565b600073ffffffffffffffffffffffffffffffffffffffff82169050919050565b6000819050919050565b600061293a826128f2565b9050919050565b82818337600083830152505050565b60005b8381101561296e578082015181840152602081019050612953565b8381111561297d576000848401525b50505050565b6000600282049050600182168061299b57607f821691505b602082108114156129af576129ae612a5c565b5b50919050565b60006129c082612925565b91507fffffffffffffffffffffffffffffffffffffffffffffffffffffffffffffffff8214156129f3576129f26129fe565b5b600182019050919050565b7f4e487b7100000000000000000000000000000000000000000000000000000000600052601160045260246000fd5b7f4e487b7100000000000000000000000000000000000000000000000000000000600052602160045260246000fd5b7f4e487b7100000000000000000000000000000000000000000000000000000000600052602260045260246000fd5b7f4e487b7100000000000000000000000000000000000000000000000000000000600052604160045260246000fd5b6000601f19601f8301169050919050565b60068110612adc57612adb612a2d565b5b50565b612ae8816128d4565b8114612af357600080fd5b50565b612aff81612925565b8114612b0a57600080fd5b5056fea26469706673582212203c86b33654ac789f956c15d902a6f5e053fe94c2d4a4feb81a5172d959dbd67e64736f6c63430008000033",
  "immutableReferences": {},
  "source": "// SPDX-License-Identifier: MIT\r\npragma solidity ^0.8.0;\r\n\r\ncontract AgriSupplyChain {\r\nenum ProductState { Created, CollectedByCollector, WithTransporter, WithDistributor, WithRetailer, Sold }\r\n    \r\n    struct Product {\r\n        uint256 id;\r\n        string name;\r\n        uint256 price;\r\n        address farmer;\r\n        address collector;\r\n        address transporter;\r\n        address distributor;\r\n        address retailer;\r\n        address consumer;\r\n        ProductState state;\r\n        bool isValid;\r\n    }\r\n    \r\n    mapping(uint256 => Product) public products;\r\n    uint256 public productCount;\r\n    \r\n    mapping(address => string) public userRoles;\r\n    \r\n    event ProductCreated(uint256 productId, string name, uint256 price, address farmer);\r\n    event ProductStateChanged(uint256 productId, ProductState newState);\r\n    \r\n    // Modified constructor\r\n    constructor() {\r\n    productCount = 0;\r\n    userRoles[msg.sender] = \"ADMIN\";\r\n    assert(bytes(userRoles[msg.sender]).length > 0); // Debug assertion\r\n}\r\n\r\n    \r\n    function registerUser(address _user, string memory _role) public {\r\n        // Allow only admin or empty role to register\r\n        require(\r\n            keccak256(bytes(userRoles[msg.sender])) == keccak256(bytes(\"ADMIN\")) || \r\n            bytes(userRoles[_user]).length == 0,\r\n            \"Unauthorized or user already registered\"\r\n        );\r\n        userRoles[_user] = _role;\r\n    }\r\n    \r\n    function createProduct(string memory _name, uint256 _price) public {\r\n        require(bytes(userRoles[msg.sender]).length > 0, \"User not registered\");\r\n        require(keccak256(bytes(userRoles[msg.sender])) == keccak256(bytes(\"FARMER\")), \"Only farmers can create products\");\r\n        \r\n        productCount++;\r\n        products[productCount] = Product(\r\n            productCount,\r\n            _name,\r\n            _price,\r\n            msg.sender,\r\n            address(0),\r\n            address(0),\r\n            address(0),\r\n            address(0),\r\n            address(0),\r\n            ProductState.Created,\r\n            true\r\n        );\r\n        \r\n        emit ProductCreated(productCount, _name, _price, msg.sender);\r\n    }\r\n    \r\n    function collectProduct(uint256 _productId) public {\r\n        require(bytes(userRoles[msg.sender]).length > 0, \"User not registered\");\r\n        require(keccak256(bytes(userRoles[msg.sender])) == keccak256(bytes(\"COLLECTOR\")), \"Only collectors can collect products\");\r\n        require(products[_productId].isValid, \"Product does not exist\");\r\n        require(products[_productId].state == ProductState.Created, \"Product not in correct state\");\r\n        \r\n        products[_productId].collector = msg.sender;\r\n        products[_productId].state = ProductState.CollectedByCollector;\r\n        \r\n        emit ProductStateChanged(_productId, ProductState.CollectedByCollector);\r\n    }\r\n    \r\n    function transportProduct(uint256 _productId) public {\r\n        require(bytes(userRoles[msg.sender]).length > 0, \"User not registered\");\r\n        require(keccak256(bytes(userRoles[msg.sender])) == keccak256(bytes(\"TRANSPORTER\")), \"Only transporters can transport products\");\r\n        require(products[_productId].state == ProductState.CollectedByCollector, \"Product not in correct state\");\r\n        \r\n        products[_productId].transporter = msg.sender;\r\n        products[_productId].state = ProductState.WithTransporter;\r\n        \r\n        emit ProductStateChanged(_productId, ProductState.WithTransporter);\r\n    }\r\n    \r\n    function distributeProduct(uint256 _productId) public {\r\n        require(bytes(userRoles[msg.sender]).length > 0, \"User not registered\");\r\n        require(keccak256(bytes(userRoles[msg.sender])) == keccak256(bytes(\"DISTRIBUTOR\")), \"Only distributors can receive products\");\r\n        require(products[_productId].state == ProductState.WithTransporter, \"Product not in correct state\");\r\n        \r\n        products[_productId].distributor = msg.sender;\r\n        products[_productId].state = ProductState.WithDistributor;\r\n        \r\n        emit ProductStateChanged(_productId, ProductState.WithDistributor);\r\n    }\r\n    \r\n    function sendToRetailer(uint256 _productId) public {\r\n        require(bytes(userRoles[msg.sender]).length > 0, \"User not registered\");\r\n        require(keccak256(bytes(userRoles[msg.sender])) == keccak256(bytes(\"RETAILER\")), \"Only retailers can receive products\");\r\n        require(products[_productId].state == ProductState.WithDistributor, \"Product not in correct state\");\r\n        \r\n        products[_productId].retailer = msg.sender;\r\n        products[_productId].state = ProductState.WithRetailer;\r\n        \r\n        emit ProductStateChanged(_productId, ProductState.WithRetailer);\r\n    }\r\n    \r\n    function purchaseProduct(uint256 _productId) public {\r\n        require(products[_productId].state == ProductState.WithRetailer, \"Product not available for purchase\");\r\n        require(products[_productId].isValid, \"Product does not exist\");\r\n        \r\n        products[_productId].consumer = msg.sender;\r\n        products[_productId].state = ProductState.Sold;\r\n        \r\n        emit ProductStateChanged(_productId, ProductState.Sold);\r\n    }\r\n    \r\n    function getProduct(uint256 _productId) public view returns (\r\n        uint256 id,\r\n        string memory name,\r\n        uint256 price,\r\n        address farmer,\r\n        address collector,\r\n        address transporter,\r\n        address distributor,\r\n        address retailer,\r\n        address consumer,\r\n        ProductState state\r\n    ) {\r\n        Product memory product = products[_productId];\r\n        return (\r\n            product.id,\r\n            product.name,\r\n            product.price,\r\n            product.farmer,\r\n            product.collector,\r\n            product.transporter,\r\n            product.distributor,\r\n            product.retailer,\r\n            product.consumer,\r\n            product.state\r\n        );\r\n    }\r\n}",
  "sourcePath": "C:\\Users\\hp\\OneDrive\\Desktop\\supplychain\\contracts\\AgriSupplyChain.sol",
  "compiler": {
    "name": "solc",
    "version": "0.8.0+commit.c7dfd78e.Emscripten.clang"
  },
  "schemaVersion": "3.4.16",
  "updatedAt": "2025-01-14T09:25:40.263Z",
  "networkType": "ethereum",
  "devdoc": {
    "kind": "dev",
    "methods": {},
    "version": 1
  },
  "userdoc": {
    "kind": "user",
    "methods": {},
    "version": 1
  }
}