{
  "contractName": "AgriSupplyChain",
  "abi": [
    {
      "inputs": [],
      "stateMutability": "nonpayable",
      "type": "constructor"
    },
    {
      "anonymous": false,
      "inputs": [
        {
          "indexed": false,
          "internalType": "uint256",
          "name": "productId",
          "type": "uint256"
        },
        {
          "indexed": false,
          "internalType": "address",
          "name": "entity",
          "type": "address"
        },
        {
          "indexed": false,
          "internalType": "uint256",
          "name": "fee",
          "type": "uint256"
        }
      ],
      "name": "FeeAdded",
      "type": "event"
    },
    {
      "anonymous": false,
      "inputs": [
        {
          "indexed": false,
          "internalType": "address",
          "name": "from",
          "type": "address"
        },
        {
          "indexed": false,
          "internalType": "address",
          "name": "to",
          "type": "address"
        },
        {
          "indexed": false,
          "internalType": "uint256",
          "name": "amount",
          "type": "uint256"
        }
      ],
      "name": "PaymentProcessed",
      "type": "event"
    },
    {
      "anonymous": false,
      "inputs": [
        {
          "indexed": false,
          "internalType": "uint256",
          "name": "productId",
          "type": "uint256"
        },
        {
          "indexed": false,
          "internalType": "string",
          "name": "name",
          "type": "string"
        },
        {
          "indexed": false,
          "internalType": "uint256",
          "name": "price",
          "type": "uint256"
        },
        {
          "indexed": false,
          "internalType": "address",
          "name": "farmer",
          "type": "address"
        }
      ],
      "name": "ProductCreated",
      "type": "event"
    },
    {
      "anonymous": false,
      "inputs": [
        {
          "indexed": false,
          "internalType": "uint256",
          "name": "productId",
          "type": "uint256"
        },
        {
          "indexed": false,
          "internalType": "uint8",
          "name": "newState",
          "type": "uint8"
        }
      ],
      "name": "ProductStateChanged",
      "type": "event"
    },
    {
      "anonymous": false,
      "inputs": [
        {
          "indexed": false,
          "internalType": "uint256",
          "name": "productId",
          "type": "uint256"
        },
        {
          "indexed": false,
          "internalType": "uint8",
          "name": "fromState",
          "type": "uint8"
        },
        {
          "indexed": false,
          "internalType": "uint8",
          "name": "toState",
          "type": "uint8"
        },
        {
          "indexed": false,
          "internalType": "address",
          "name": "by",
          "type": "address"
        }
      ],
      "name": "TransactionReverted",
      "type": "event"
    },
    {
      "inputs": [],
      "name": "ADMIN",
      "outputs": [
        {
          "internalType": "address",
          "name": "",
          "type": "address"
        }
      ],
      "stateMutability": "view",
      "type": "function",
      "constant": true
    },
    {
      "inputs": [],
      "name": "productCount",
      "outputs": [
        {
          "internalType": "uint256",
          "name": "",
          "type": "uint256"
        }
      ],
      "stateMutability": "view",
      "type": "function",
      "constant": true
    },
    {
      "inputs": [
        {
          "internalType": "uint256",
          "name": "",
          "type": "uint256"
        },
        {
          "internalType": "uint256",
          "name": "",
          "type": "uint256"
        }
      ],
      "name": "productPayments",
      "outputs": [
        {
          "internalType": "address",
          "name": "from",
          "type": "address"
        },
        {
          "internalType": "address",
          "name": "to",
          "type": "address"
        },
        {
          "internalType": "uint256",
          "name": "amount",
          "type": "uint256"
        },
        {
          "internalType": "uint8",
          "name": "fromState",
          "type": "uint8"
        },
        {
          "internalType": "uint8",
          "name": "toState",
          "type": "uint8"
        },
        {
          "internalType": "uint256",
          "name": "timestamp",
          "type": "uint256"
        }
      ],
      "stateMutability": "view",
      "type": "function",
      "constant": true
    },
    {
      "inputs": [
        {
          "internalType": "uint256",
          "name": "",
          "type": "uint256"
        }
      ],
      "name": "products",
      "outputs": [
        {
          "internalType": "uint256",
          "name": "id",
          "type": "uint256"
        },
        {
          "components": [
            {
              "internalType": "string",
              "name": "name",
              "type": "string"
            },
            {
              "internalType": "uint256",
              "name": "basePrice",
              "type": "uint256"
            },
            {
              "internalType": "bool",
              "name": "isValid",
              "type": "bool"
            },
            {
              "internalType": "bool",
              "name": "isPaid",
              "type": "bool"
            },
            {
              "components": [
                {
                  "internalType": "string",
                  "name": "district",
                  "type": "string"
                },
                {
                  "internalType": "string",
                  "name": "localBody",
                  "type": "string"
                },
                {
                  "internalType": "uint256",
                  "name": "distance",
                  "type": "uint256"
                }
              ],
              "internalType": "struct ProductStructs.Location",
              "name": "location",
              "type": "tuple"
            }
          ],
          "internalType": "struct ProductStructs.ProductDetails",
          "name": "details",
          "type": "tuple"
        },
        {
          "components": [
            {
              "internalType": "address",
              "name": "farmer",
              "type": "address"
            },
            {
              "internalType": "address",
              "name": "collector",
              "type": "address"
            },
            {
              "internalType": "address",
              "name": "transporter",
              "type": "address"
            },
            {
              "internalType": "address",
              "name": "distributor",
              "type": "address"
            },
            {
              "internalType": "address",
              "name": "retailer",
              "type": "address"
            },
            {
              "internalType": "address",
              "name": "consumer",
              "type": "address"
            }
          ],
          "internalType": "struct ProductStructs.ProductActors",
          "name": "actors",
          "type": "tuple"
        },
        {
          "components": [
            {
              "internalType": "uint256",
              "name": "collectorFee",
              "type": "uint256"
            },
            {
              "internalType": "uint256",
              "name": "transporterFee",
              "type": "uint256"
            },
            {
              "internalType": "uint256",
              "name": "distributorFee",
              "type": "uint256"
            },
            {
              "internalType": "uint256",
              "name": "retailerFee",
              "type": "uint256"
            }
          ],
          "internalType": "struct ProductStructs.ProductFees",
          "name": "fees",
          "type": "tuple"
        },
        {
          "internalType": "uint8",
          "name": "state",
          "type": "uint8"
        }
      ],
      "stateMutability": "view",
      "type": "function",
      "constant": true
    },
    {
      "inputs": [
        {
          "internalType": "address",
          "name": "",
          "type": "address"
        }
      ],
      "name": "userRoles",
      "outputs": [
        {
          "internalType": "string",
          "name": "",
          "type": "string"
        }
      ],
      "stateMutability": "view",
      "type": "function",
      "constant": true
    },
    {
      "inputs": [
        {
          "internalType": "uint256",
          "name": "_productId",
          "type": "uint256"
        }
      ],
      "name": "revertTransaction",
      "outputs": [],
      "stateMutability": "nonpayable",
      "type": "function"
    },
    {
      "inputs": [
        {
          "internalType": "address",
          "name": "_user",
          "type": "address"
        },
        {
          "internalType": "string",
          "name": "_role",
          "type": "string"
        }
      ],
      "name": "registerUser",
      "outputs": [],
      "stateMutability": "nonpayable",
      "type": "function"
    },
    {
      "inputs": [
        {
          "internalType": "string",
          "name": "_name",
          "type": "string"
        },
        {
          "internalType": "uint256",
          "name": "_basePrice",
          "type": "uint256"
        }
      ],
      "name": "createProduct",
      "outputs": [],
      "stateMutability": "nonpayable",
      "type": "function"
    },
    {
      "inputs": [
        {
          "internalType": "uint256",
          "name": "_productId",
          "type": "uint256"
        },
        {
          "internalType": "uint256",
          "name": "_collectorFee",
          "type": "uint256"
        },
        {
          "internalType": "string",
          "name": "_district",
          "type": "string"
        },
        {
          "internalType": "string",
          "name": "_localBody",
          "type": "string"
        },
        {
          "internalType": "uint256",
          "name": "_distance",
          "type": "uint256"
        }
      ],
      "name": "collectProduct",
      "outputs": [],
      "stateMutability": "payable",
      "type": "function",
      "payable": true
    },
    {
      "inputs": [
        {
          "internalType": "uint256",
          "name": "_productId",
          "type": "uint256"
        },
        {
          "internalType": "uint256",
          "name": "_transporterFee",
          "type": "uint256"
        }
      ],
      "name": "transportProduct",
      "outputs": [],
      "stateMutability": "payable",
      "type": "function",
      "payable": true
    },
    {
      "inputs": [
        {
          "internalType": "uint256",
          "name": "_productId",
          "type": "uint256"
        },
        {
          "internalType": "uint256",
          "name": "_distributorFee",
          "type": "uint256"
        }
      ],
      "name": "distributeProduct",
      "outputs": [],
      "stateMutability": "payable",
      "type": "function",
      "payable": true
    },
    {
      "inputs": [
        {
          "internalType": "uint256",
          "name": "_productId",
          "type": "uint256"
        },
        {
          "internalType": "uint256",
          "name": "_retailerFee",
          "type": "uint256"
        }
      ],
      "name": "sendToRetailer",
      "outputs": [],
      "stateMutability": "payable",
      "type": "function",
      "payable": true
    },
    {
      "inputs": [
        {
          "internalType": "uint256",
          "name": "_productId",
          "type": "uint256"
        }
      ],
      "name": "purchaseProduct",
      "outputs": [],
      "stateMutability": "payable",
      "type": "function",
      "payable": true
    },
    {
      "inputs": [
        {
          "internalType": "uint256",
          "name": "_productId",
          "type": "uint256"
        }
      ],
      "name": "getProductTransactions",
      "outputs": [
        {
          "internalType": "address[]",
          "name": "from",
          "type": "address[]"
        },
        {
          "internalType": "address[]",
          "name": "to",
          "type": "address[]"
        },
        {
          "internalType": "uint256[]",
          "name": "amounts",
          "type": "uint256[]"
        },
        {
          "internalType": "uint8[]",
          "name": "fromStates",
          "type": "uint8[]"
        },
        {
          "internalType": "uint8[]",
          "name": "toStates",
          "type": "uint8[]"
        },
        {
          "internalType": "uint256[]",
          "name": "timestamps",
          "type": "uint256[]"
        }
      ],
      "stateMutability": "view",
      "type": "function",
      "constant": true
    },
    {
      "inputs": [
        {
          "internalType": "uint256",
          "name": "_productId",
          "type": "uint256"
        }
      ],
      "name": "getProductBasicInfo",
      "outputs": [
        {
          "internalType": "uint256",
          "name": "id",
          "type": "uint256"
        },
        {
          "internalType": "string",
          "name": "name",
          "type": "string"
        },
        {
          "internalType": "uint256",
          "name": "basePrice",
          "type": "uint256"
        },
        {
          "internalType": "uint8",
          "name": "state",
          "type": "uint8"
        },
        {
          "internalType": "bool",
          "name": "isValid",
          "type": "bool"
        },
        {
          "internalType": "string",
          "name": "district",
          "type": "string"
        },
        {
          "internalType": "string",
          "name": "localBody",
          "type": "string"
        },
        {
          "internalType": "uint256",
          "name": "distance",
          "type": "uint256"
        }
      ],
      "stateMutability": "view",
      "type": "function",
      "constant": true
    },
    {
      "inputs": [
        {
          "internalType": "uint256",
          "name": "_productId",
          "type": "uint256"
        }
      ],
      "name": "getProductFees",
      "outputs": [
        {
          "internalType": "uint256",
          "name": "collectorFee",
          "type": "uint256"
        },
        {
          "internalType": "uint256",
          "name": "transporterFee",
          "type": "uint256"
        },
        {
          "internalType": "uint256",
          "name": "distributorFee",
          "type": "uint256"
        },
        {
          "internalType": "uint256",
          "name": "retailerFee",
          "type": "uint256"
        }
      ],
      "stateMutability": "view",
      "type": "function",
      "constant": true
    },
    {
      "inputs": [
        {
          "internalType": "uint256",
          "name": "_productId",
          "type": "uint256"
        }
      ],
      "name": "getProductActors",
      "outputs": [
        {
          "internalType": "address",
          "name": "farmer",
          "type": "address"
        },
        {
          "internalType": "address",
          "name": "collector",
          "type": "address"
        },
        {
          "internalType": "address",
          "name": "transporter",
          "type": "address"
        },
        {
          "internalType": "address",
          "name": "distributor",
          "type": "address"
        },
        {
          "internalType": "address",
          "name": "retailer",
          "type": "address"
        },
        {
          "internalType": "address",
          "name": "consumer",
          "type": "address"
        }
      ],
      "stateMutability": "view",
      "type": "function",
      "constant": true
    },
    {
      "inputs": [
        {
          "internalType": "uint256",
          "name": "_productId",
          "type": "uint256"
        }
      ],
      "name": "getTotalPrice",
      "outputs": [
        {
          "internalType": "uint256",
          "name": "",
          "type": "uint256"
        }
      ],
      "stateMutability": "view",
      "type": "function",
      "constant": true
    }
  ],
  "bytecode": "0x60806040523480156200001157600080fd5b506000600181905560408051808201909152600581526420a226a4a760d91b602080830191825273f7084f4e361ce391efd9f983d13887322a0bc86f90935260029092525162000083917ff107216a1ecd43f14aed4ecb1cd0a63955d3f5edd6214d0779ddc5a00f0d3f43916200008a565b5062000177565b828054620000989062000130565b90600052602060002090601f016020900481019282620000bc576000855562000107565b82601f10620000d757805160ff191683800117855562000107565b8280016001018555821562000107579182015b8281111562000107578251825591602001919060010190620000ea565b506200011592915062000119565b5090565b5b808211156200011557600081556001016200011a565b6002810460018216806200014557607f821691505b602082108114156200015b576200015b62000161565b50919050565b634e487b7160e01b600052602260045260246000fd5b61365880620001876000396000f3fe6080604052600436106101095760003560e01c806388d5827811610095578063b1388c8e11610064578063b1388c8e146102ed578063bd73ec621461031f578063ca7dd37514610332578063e0f6ef871461035f578063e9300c6c1461037457610109565b806388d582781461023757806392cdfcd5146102675780639ab2dfa31461029b578063a6c6c11c146102cd57610109565b806339be643e116100dc57806339be643e1461018157806346d84c0b146101945780635cd911ba146101a757806374d5e100146101d95780637acc0b201461020657610109565b806305c202691461010e5780630ea126f9146101235780632a0acc6a1461014357806338e76a031461016e575b600080fd5b61012161011c3660046125d7565b610394565b005b34801561012f57600080fd5b5061012161013e366004612520565b610619565b34801561014f57600080fd5b506101586106f0565b6040516101659190612f5f565b60405180910390f35b61012161017c3660046125b9565b610708565b61012161018f3660046125d7565b6108ce565b6101216101a23660046125f6565b610b3e565b3480156101b357600080fd5b506101c76101c23660046125d7565b610e34565b60405161016596959493929190612fef565b3480156101e557600080fd5b506101f96101f4366004612502565b610e9c565b60405161016591906130bf565b34801561021257600080fd5b506102266102213660046125b9565b610f36565b604051610165959493929190613304565b34801561024357600080fd5b506102576102523660046125b9565b611200565b604051610165949392919061335a565b34801561027357600080fd5b506102876102823660046125b9565b61122b565b604051610165989796959493929190613278565b3480156102a757600080fd5b506102bb6102b63660046125b9565b61143c565b6040516101659695949392919061303e565b3480156102d957600080fd5b506101216102e83660046125b9565b611946565b3480156102f957600080fd5b5061030d6103083660046125b9565b611cb1565b60405161016596959493929190612f6d565b61012161032d3660046125d7565b611cff565b34801561033e57600080fd5b5061035261034d3660046125b9565b611f70565b6040516101659190613220565b34801561036b57600080fd5b50610352611fc6565b34801561038057600080fd5b5061012161038f366004612572565b611fcc565b33600090815260026020526040812080546103ae90613503565b9050116103d65760405162461bcd60e51b81526004016103cd90613100565b60405180910390fd5b604080518082018252600b81526a2224a9aa2924a12aaa27a960a91b602091820152336000908152600290915281902090517f85faced7bde13e1a7dad704b895f006e704f207617d68166b31ba2d79624862d9161043391612f48565b6040518091039020146104585760405162461bcd60e51b81526004016103cd90613180565b60008281526020819052604090206011015460ff1660021461048c5760405162461bcd60e51b81526004016103cd90613210565b6000828152602081905260409020600e01543410156104bd5760405162461bcd60e51b81526004016103cd906131d0565b6000828152602081905260408082206009810154600e9091015491516001600160a01b039091169282156108fc02929190818181858888f1935050505015801561050b573d6000803e3d6000fd5b506000828152602081905260409020600a810180546001600160a01b03191633908117909155600f820183905560118201805460ff19166003908117909155808301805461ff0019169055600990920154610577928592916001600160a01b0316903490600290612316565b600082815260208190526040908190206009810154600e909101549151600080516020613603833981519152926105bc9233926001600160a01b039091169190612fc7565b60405180910390a16000805160206135c38339815191528233836040516105e59392919061322e565b60405180910390a16000805160206135e383398151915282600360405161060d92919061338f565b60405180910390a15050565b604080518082018252600581526420a226a4a760d91b602091820152336000908152600290915281902090517fdf8b4c520ffe197c5343c6f5aec59570151ef9a492f2c624fd45ddde6135ec429161067091612f48565b604051809103902014806106a657506001600160a01b038216600090815260026020526040902080546106a290613503565b1590505b6106c25760405162461bcd60e51b81526004016103cd90613200565b6001600160a01b038216600090815260026020908152604090912082516106eb928401906123e6565b505050565b73f7084f4e361ce391efd9f983d13887322a0bc86f81565b60008181526020819052604090206003015460ff166107395760405162461bcd60e51b81526004016103cd906130e0565b60008181526020819052604090206011015460ff1660041461076d5760405162461bcd60e51b81526004016103cd90613190565b60008181526020819052604090206010015434101561079e5760405162461bcd60e51b81526004016103cd90613150565b600081815260208190526040808220600b81015460109091015491516001600160a01b039091169282156108fc02929190818181858888f193505050501580156107ec573d6000803e3d6000fd5b506000818152602081905260409020600c810180546001600160a01b0319163390811790915560118201805460ff1916600590811790915560038301805461ff001916610100179055600b90920154610856928492916001600160a01b0316903490600490612316565b60008181526020819052604090819020600b81015460109091015491516000805160206136038339815191529261089b9233926001600160a01b039091169190612fc7565b60405180910390a16000805160206135e38339815191528160056040516108c392919061338f565b60405180910390a150565b33600090815260026020526040812080546108e890613503565b9050116109075760405162461bcd60e51b81526004016103cd90613100565b60408051808201825260088152672922aa20a4a622a960c11b602091820152336000908152600290915281902090517f27d5ccc46db01bfa5691ce092fe276221c6cd0aa6d05765b52c3ddecfa70421a9161096191612f48565b6040518091039020146109865760405162461bcd60e51b81526004016103cd906130d0565b60008281526020819052604090206011015460ff166003146109ba5760405162461bcd60e51b81526004016103cd90613210565b6000828152602081905260409020600f01543410156109eb5760405162461bcd60e51b81526004016103cd906131f0565b600082815260208190526040808220600a810154600f9091015491516001600160a01b039091169282156108fc02929190818181858888f19350505050158015610a39573d6000803e3d6000fd5b506000828152602081905260409020600b810180546001600160a01b031916339081179091556010820183905560118201805460ff191660049081179091556003808401805461ff0019169055600a90930154610aa8938693926001600160a01b039290921691349190612316565b60008281526020819052604090819020600a810154600f90910154915160008051602061360383398151915292610aed9233926001600160a01b039091169190612fc7565b60405180910390a16000805160206135c3833981519152823383604051610b169392919061322e565b60405180910390a16000805160206135e383398151915282600460405161060d92919061338f565b3360009081526002602052604081208054610b5890613503565b905011610b775760405162461bcd60e51b81526004016103cd90613100565b604080518082018252600981526821a7a62622a1aa27a960b91b602091820152336000908152600290915281902090517fcbce9983fcd5fc099294db3138f1660107f2bd5b23b9fa0002d7df1db9d854cb91610bd291612f48565b604051809103902014610bf75760405162461bcd60e51b81526004016103cd90613140565b60008581526020819052604090206003015460ff16610c285760405162461bcd60e51b81526004016103cd906130e0565b60008581526020819052604090206011015460ff1615610c5a5760405162461bcd60e51b81526004016103cd90613210565b600085815260208190526040902060020154341015610c8b5760405162461bcd60e51b81526004016103cd906131b0565b600085815260208190526040808220600781015460029091015491516001600160a01b039091169282156108fc02929190818181858888f19350505050158015610cd9573d6000803e3d6000fd5b506000858152602081815260409091206008810180546001600160a01b03191633179055600d810186905560118101805460ff1916600117905560038101805461ff00191690558451610d34926004909201918601906123e6565b506000858152602081815260409091208351610d58926005909201918501906123e6565b5060008581526020819052604081206006810183905560070154610d8f91879133916001600160a01b039091169034906001612316565b600085815260208190526040908190206007810154600290910154915160008051602061360383398151915292610dd49233926001600160a01b039091169190612fc7565b60405180910390a16000805160206135c3833981519152853386604051610dfd9392919061322e565b60405180910390a16000805160206135e3833981519152856001604051610e2592919061338f565b60405180910390a15050505050565b60036020528160005260406000208181548110610e5057600080fd5b6000918252602090912060059091020180546001820154600283015460038401546004909401546001600160a01b0393841696509290911693509160ff80821692610100909204169086565b60026020526000908152604090208054610eb590613503565b80601f0160208091040260200160405190810160405280929190818152602001828054610ee190613503565b8015610f2e5780601f10610f0357610100808354040283529160200191610f2e565b820191906000526020600020905b815481529060010190602001808311610f1157829003601f168201915b505050505081565b600060208190529081526040908190208054825160a0810190935260018201805491939182908290610f6790613503565b80601f0160208091040260200160405190810160405280929190818152602001828054610f9390613503565b8015610fe05780601f10610fb557610100808354040283529160200191610fe0565b820191906000526020600020905b815481529060010190602001808311610fc357829003601f168201915b505050918352505060018201546020820152600282015460ff808216151560408085019190915261010090920416151560608084019190915281519081019091526003830180546080909301928290829061103a90613503565b80601f016020809104026020016040519081016040528092919081815260200182805461106690613503565b80156110b35780601f10611088576101008083540402835291602001916110b3565b820191906000526020600020905b81548152906001019060200180831161109657829003601f168201915b505050505081526020016001820180546110cc90613503565b80601f01602080910402602001604051908101604052809291908181526020018280546110f890613503565b80156111455780601f1061111a57610100808354040283529160200191611145565b820191906000526020600020905b81548152906001019060200180831161112857829003601f168201915b50505091835250506002919091015460209182015291526040805160c08101825260078601546001600160a01b03908116825260088701548116828501526009870154811682840152600a8701548116606080840191909152600b8801548216608080850191909152600c89015490921660a084015283519182018452600d8801548252600e88015494820194909452600f870154928101929092526010860154928201929092526011909401549293909290915060ff1685565b6000908152602081905260409020600d810154600e820154600f830154601090930154919390929190565b6000818152602081905260408120805460028201546011830154600384015460068501546001860180546060978997889788978b9788978a97959694959460ff938416939092169160048801916005890191879061128890613503565b80601f01602080910402602001604051908101604052809291908181526020018280546112b490613503565b80156113015780601f106112d657610100808354040283529160200191611301565b820191906000526020600020905b8154815290600101906020018083116112e457829003601f168201915b5050505050965082805461131490613503565b80601f016020809104026020016040519081016040528092919081815260200182805461134090613503565b801561138d5780601f106113625761010080835404028352916020019161138d565b820191906000526020600020905b81548152906001019060200180831161137057829003601f168201915b505050505092508180546113a090613503565b80601f01602080910402602001604051908101604052809291908181526020018280546113cc90613503565b80156114195780601f106113ee57610100808354040283529160200191611419565b820191906000526020600020905b8154815290600101906020018083116113fc57829003601f168201915b505050505091509850985098509850985098509850985050919395975091939597565b606080808080803373f7084f4e361ce391efd9f983d13887322a0bc86f146114765760405162461bcd60e51b81526004016103cd906131a0565b600087815260036020526040902080548067ffffffffffffffff8111156114ad57634e487b7160e01b600052604160045260246000fd5b6040519080825280602002602001820160405280156114d6578160200160208202803683370190505b5097508067ffffffffffffffff81111561150057634e487b7160e01b600052604160045260246000fd5b604051908082528060200260200182016040528015611529578160200160208202803683370190505b5096508067ffffffffffffffff81111561155357634e487b7160e01b600052604160045260246000fd5b60405190808252806020026020018201604052801561157c578160200160208202803683370190505b5095508067ffffffffffffffff8111156115a657634e487b7160e01b600052604160045260246000fd5b6040519080825280602002602001820160405280156115cf578160200160208202803683370190505b5094508067ffffffffffffffff8111156115f957634e487b7160e01b600052604160045260246000fd5b604051908082528060200260200182016040528015611622578160200160208202803683370190505b5093508067ffffffffffffffff81111561164c57634e487b7160e01b600052604160045260246000fd5b604051908082528060200260200182016040528015611675578160200160208202803683370190505b50925060005b8181101561193a578281815481106116a357634e487b7160e01b600052603260045260246000fd5b600091825260209091206005909102015489516001600160a01b03909116908a90839081106116e257634e487b7160e01b600052603260045260246000fd5b60200260200101906001600160a01b031690816001600160a01b03168152505082818154811061172257634e487b7160e01b600052603260045260246000fd5b906000526020600020906005020160010160009054906101000a90046001600160a01b031688828151811061176757634e487b7160e01b600052603260045260246000fd5b60200260200101906001600160a01b031690816001600160a01b0316815250508281815481106117a757634e487b7160e01b600052603260045260246000fd5b9060005260206000209060050201600201548782815181106117d957634e487b7160e01b600052603260045260246000fd5b60200260200101818152505082818154811061180557634e487b7160e01b600052603260045260246000fd5b906000526020600020906005020160030160009054906101000a900460ff1686828151811061184457634e487b7160e01b600052603260045260246000fd5b602002602001019060ff16908160ff168152505082818154811061187857634e487b7160e01b600052603260045260246000fd5b906000526020600020906005020160030160019054906101000a900460ff168582815181106118b757634e487b7160e01b600052603260045260246000fd5b602002602001019060ff16908160ff16815250508281815481106118eb57634e487b7160e01b600052603260045260246000fd5b90600052602060002090600502016004015484828151811061191d57634e487b7160e01b600052603260045260246000fd5b60209081029190910101528061193281613530565b91505061167b565b50505091939550919395565b3373f7084f4e361ce391efd9f983d13887322a0bc86f146119795760405162461bcd60e51b81526004016103cd906131a0565b6000818152602081905260409020600381015460ff166119ab5760405162461bcd60e51b81526004016103cd906130e0565b601181015460ff166119cf5760405162461bcd60e51b81526004016103cd906131c0565b600082815260036020526040902080546119fb5760405162461bcd60e51b81526004016103cd90613120565b80546000908290611a0e90600190613479565b81548110611a2c57634e487b7160e01b600052603260045260246000fd5b906000526020600020906005020190508060020154471015611a605760405162461bcd60e51b81526004016103cd90613170565b60118301546003820154610100900460ff908116911614611a935760405162461bcd60e51b81526004016103cd90613130565b805460028201546040516000926001600160a01b03169190611ab490612f54565b60006040518083038185875af1925050503d8060008114611af1576040519150601f19603f3d011682016040523d82523d6000602084013e611af6565b606091505b5050905080611b175760405162461bcd60e51b81526004016103cd906131e0565b600382015460118501805460ff191660ff928316179081905516611b53576008840180546001600160a01b03191690556000600d850155611c00565b601184015460ff1660011415611b81576009840180546001600160a01b03191690556000600e850155611c00565b601184015460ff1660021415611baf57600a840180546001600160a01b03191690556000600f850155611c00565b601184015460ff1660031415611bdd57600b840180546001600160a01b031916905560006010850155611c00565b601184015460ff1660041415611c0057600c840180546001600160a01b03191690555b82805480611c1e57634e487b7160e01b600052603160045260246000fd5b60008281526020812060056000199093019283020180546001600160a01b031990811682556001820180549091169055600281018290556003808201805461ffff1916905560049091019190915591558201546040517f0a4617ef8348d6deca42212b6c9e87649fbab8b72c81ad235cc93c6e66d8421091610e25918891610100810460ff9081169291169033906133aa565b6000908152602081905260409020600781015460088201546009830154600a840154600b850154600c909501546001600160a01b039485169693851695928516949182169392821692911690565b3360009081526002602052604081208054611d1990613503565b905011611d385760405162461bcd60e51b81526004016103cd90613100565b604080518082018252600b81526a2a2920a729a827a92a22a960a91b602091820152336000908152600290915281902090517f7c2d301983a60156b882648bf1c7210b103e1d4715ba229e6182e4f8ecd987be91611d9591612f48565b604051809103902014611dba5760405162461bcd60e51b81526004016103cd90613160565b60008281526020819052604090206011015460ff16600114611dee5760405162461bcd60e51b81526004016103cd90613210565b6000828152602081905260409020600d0154341015611e1f5760405162461bcd60e51b81526004016103cd90613110565b6000828152602081905260408082206008810154600d9091015491516001600160a01b039091169282156108fc02929190818181858888f19350505050158015611e6d573d6000803e3d6000fd5b5060008281526020819052604090206009810180546001600160a01b03191633908117909155600e820183905560118201805460ff1916600290811790915560038301805461ff0019169055600890920154611eda928592916001600160a01b0316903490600190612316565b600082815260208190526040908190206008810154600d90910154915160008051602061360383398151915292611f1f9233926001600160a01b039091169190612fc7565b60405180910390a16000805160206135c3833981519152823383604051611f489392919061322e565b60405180910390a16000805160206135e383398151915282600260405161060d92919061338f565b60008181526020819052604081206010810154600f820154600e830154600d8401546002850154611fa1919061344b565b611fab919061344b565b611fb5919061344b565b611fbf919061344b565b9392505050565b60015481565b3360009081526002602052604081208054611fe690613503565b9050116120055760405162461bcd60e51b81526004016103cd90613100565b60408051808201825260068152652320a926a2a960d11b602091820152336000908152600290915281902090517ff309ffc42715a0bfccdfa0c4cac305505f15ab9b9262b7451ceea96c0cc351879161205d91612f48565b6040518091039020146120825760405162461bcd60e51b81526004016103cd906130f0565b6001805490600061209283613530565b90915550506040805160a080820183528482526020808301859052600183850181905260006060808601829052865160808181018952818301848152825288518087018a528481528287015281890184905280880191909152875160c08101895233815280860184905280890184905280830184905280820184905280870184905288518083018a52848152808701859052808a0185905280840185905289519788018a5285548089528888018a8152898c0184905294890182905292880185905291845283865297909220855181559051805180519798979396959294919391850192612185928492909101906123e6565b5060208281015160018301556040830151600283018054606086015115156101000261ff001993151560ff199092169190911792909216919091179055608083015180518051919260038501926121df92849201906123e6565b5060208281015180516121f892600185019201906123e6565b50604091820151600291909101558481015180516007860180546001600160a01b03199081166001600160a01b03938416179091556020808401516008890180548416918516919091179055838501516009890180548416918516919091179055606080850151600a8a0180548516918616919091179055608080860151600b8b018054861691871691909117905560a090950151600c8a018054909416941693909317909155818801518051600d89015590810151600e88015580840151600f88015501516010860155909401516011909301805460ff191660ff90941693909317909255505060015490517f2e87df3c8f53fb06266ed52023929f5fab9f24130224ef6538b665d9cac8253091610e259188908890339061323c565b6040805160c0810182526001600160a01b039687168152948616602080870191825286830195865260ff94851660608801908152938516608088019081524260a0890190815260009a8b526003808452948b20805460018181018355918d5293909b20985160059093029098018054928a166001600160a01b0319938416178155925199830180549a909916999091169890981790965592516002860155519184018054955182166101000261ff00199390921660ff199096169590951791909116179092559051600490910155565b8280546123f290613503565b90600052602060002090601f016020900481019282612414576000855561245a565b82601f1061242d57805160ff191683800117855561245a565b8280016001018555821561245a579182015b8281111561245a57825182559160200191906001019061243f565b5061246692915061246a565b5090565b5b80821115612466576000815560010161246b565b600061249261248d846133fc565b6133d2565b9050828152602081018484840111156124aa57600080fd5b6124b58482856134cb565b509392505050565b80356124c8816135a2565b92915050565b600082601f8301126124df57600080fd5b81356124ef84826020860161247f565b949350505050565b80356124c8816135b9565b60006020828403121561251457600080fd5b60006124ef84846124bd565b6000806040838503121561253357600080fd5b600061253f85856124bd565b925050602083013567ffffffffffffffff81111561255c57600080fd5b612568858286016124ce565b9150509250929050565b6000806040838503121561258557600080fd5b823567ffffffffffffffff81111561259c57600080fd5b6125a8858286016124ce565b9250506020612568858286016124f7565b6000602082840312156125cb57600080fd5b60006124ef84846124f7565b600080604083850312156125ea57600080fd5b60006125a885856124f7565b600080600080600060a0868803121561260e57600080fd5b600061261a88886124f7565b955050602061262b888289016124f7565b945050604086013567ffffffffffffffff81111561264857600080fd5b612654888289016124ce565b935050606086013567ffffffffffffffff81111561267157600080fd5b61267d888289016124ce565b925050608061268e888289016124f7565b9150509295509295909350565b60006126a783836126c7565b505060200190565b60006126a78383612f36565b60006126a78383612f3f565b6126d0816134a6565b82525050565b60006126e182613439565b6126eb818561343d565b93506126f683613427565b8060005b8381101561272457815161270e888261269b565b975061271983613427565b9250506001016126fa565b509495945050505050565b600061273a82613439565b612744818561343d565b935061274f83613427565b8060005b8381101561272457815161276788826126af565b975061277283613427565b925050600101612753565b600061278882613439565b612792818561343d565b935061279d83613427565b8060005b838110156127245781516127b588826126bb565b97506127c083613427565b9250506001016127a1565b6126d0816134b1565b600081546127e181613503565b6127eb8186613446565b9450600182168015612804576001811461281557612845565b60ff19831686528186019350612845565b61281e8561342d565b60005b8381101561283d57815488820152600190910190602001612821565b838801955050505b50505092915050565b600061285982613439565b612863818561343d565b93506128738185602086016134d7565b61287c81613598565b9093019392505050565b600061289360238361343d565b7f4f6e6c792072657461696c6572732063616e20726563656976652070726f647581526263747360e81b602082015260400192915050565b60006128d860168361343d565b75141c9bd91d58dd08191bd95cc81b9bdd08195e1a5cdd60521b815260200192915050565b600061290a60208361343d565b7f4f6e6c79206661726d6572732063616e206372656174652070726f6475637473815260200192915050565b600061294360138361343d565b72155cd95c881b9bdd081c9959da5cdd195c9959606a1b815260200192915050565b600061297260228361343d565b7f496e73756666696369656e74207061796d656e7420666f7220636f6c6c65637481526137b960f11b602082015260400192915050565b60006129b660158361343d565b74139bc81c185e5b595b9d1cc81d1bc81c995d995c9d605a1b815260200192915050565b60006129e7601b8361343d565b7f496e76616c696420737461746520666f7220726576657273696f6e0000000000815260200192915050565b6000612a2060248361343d565b7f4f6e6c7920636f6c6c6563746f72732063616e20636f6c6c6563742070726f648152637563747360e01b602082015260400192915050565b6000612a6660218361343d565b7f496e73756666696369656e74207061796d656e7420666f722072657461696c658152603960f91b602082015260400192915050565b6000612aa960288361343d565b7f4f6e6c79207472616e73706f72746572732063616e207472616e73706f72742081526770726f647563747360c01b602082015260400192915050565b6000612af360288361343d565b7f496e73756666696369656e7420636f6e74726163742062616c616e636520666f8152671c881c99599d5b9960c21b602082015260400192915050565b6000612b3d60268361343d565b7f4f6e6c79206469737472696275746f72732063616e20726563656976652070728152656f647563747360d01b602082015260400192915050565b6000612b8560228361343d565b7f50726f64756374206e6f7420617661696c61626c6520666f7220707572636861815261736560f01b602082015260400192915050565b6000612bc960228361343d565b7f4f6e6c792061646d696e2063616e20706572666f726d2074686973206163746981526137b760f11b602082015260400192915050565b60006124c8600083613446565b6000612c1a601f8361343d565b7f496e73756666696369656e74207061796d656e7420666f72206661726d657200815260200192915050565b6000612c53601b8361343d565b7f43616e6e6f742072657665727420696e697469616c2073746174650000000000815260200192915050565b6000612c8c60248361343d565b7f496e73756666696369656e74207061796d656e7420666f72207472616e73706f815263393a32b960e11b602082015260400192915050565b6000612cd260168361343d565b751499599d5b99081d1c985b9cd9995c8819985a5b195960521b815260200192915050565b6000612d0460248361343d565b7f496e73756666696369656e74207061796d656e7420666f7220646973747269628152633aba37b960e11b602082015260400192915050565b6000612d4a60278361343d565b7f556e617574686f72697a6564206f72207573657220616c7265616479207265678152661a5cdd195c995960ca1b602082015260400192915050565b6000612d93601c8361343d565b7f50726f64756374206e6f7420696e20636f727265637420737461746500000000815260200192915050565b8051606080845260009190840190612dd7828261284e565b91505060208301518482036020860152612df1828261284e565b91505060408301516124b56040860182612f36565b805160c0830190612e1784826126c7565b506020820151612e2a60208501826126c7565b506040820151612e3d60408501826126c7565b506060820151612e5060608501826126c7565b506080820151612e6360808501826126c7565b5060a0820151612e7660a08501826126c7565b50505050565b805160a080845260009190840190612e94828261284e565b9150506020830151612ea96020860182612f36565b506040830151612ebc60408601826127cb565b506060830151612ecf60608601826127cb565b5060808301518482036080860152612ee78282612dbf565b95945050505050565b80516080830190612f018482612f36565b506020820151612f146020850182612f36565b506040820151612f276040850182612f36565b506060820151612e7660608501825b6126d0816134c2565b6126d0816134c5565b6000611fbf82846127d4565b60006124c882612c00565b602081016124c882846126c7565b60c08101612f7b82896126c7565b612f8860208301886126c7565b612f9560408301876126c7565b612fa260608301866126c7565b612faf60808301856126c7565b612fbc60a08301846126c7565b979650505050505050565b60608101612fd582866126c7565b612fe260208301856126c7565b6124ef6040830184612f36565b60c08101612ffd82896126c7565b61300a60208301886126c7565b6130176040830187612f36565b6130246060830186612f3f565b6130316080830185612f3f565b612fbc60a0830184612f36565b60c0808252810161304f81896126d6565b9050818103602083015261306381886126d6565b90508181036040830152613077818761272f565b9050818103606083015261308b818661277d565b9050818103608083015261309f818561277d565b905081810360a08301526130b3818461272f565b98975050505050505050565b60208082528101611fbf818461284e565b602080825281016124c881612886565b602080825281016124c8816128cb565b602080825281016124c8816128fd565b602080825281016124c881612936565b602080825281016124c881612965565b602080825281016124c8816129a9565b602080825281016124c8816129da565b602080825281016124c881612a13565b602080825281016124c881612a59565b602080825281016124c881612a9c565b602080825281016124c881612ae6565b602080825281016124c881612b30565b602080825281016124c881612b78565b602080825281016124c881612bbc565b602080825281016124c881612c0d565b602080825281016124c881612c46565b602080825281016124c881612c7f565b602080825281016124c881612cc5565b602080825281016124c881612cf7565b602080825281016124c881612d3d565b602080825281016124c881612d86565b602081016124c88284612f36565b60608101612fd58286612f36565b6080810161324a8287612f36565b818103602083015261325c818661284e565b905061326b6040830185612f36565b612ee760608301846126c7565b6101008101613287828b612f36565b8181036020830152613299818a61284e565b90506132a86040830189612f36565b6132b56060830188612f3f565b6132c260808301876127cb565b81810360a08301526132d4818661284e565b905081810360c08301526132e8818561284e565b90506132f760e0830184612f36565b9998505050505050505050565b6101a081016133138288612f36565b81810360208301526133258187612e7c565b90506133346040830186612e06565b613342610100830185612ef0565b613350610180830184612f3f565b9695505050505050565b608081016133688287612f36565b6133756020830186612f36565b6133826040830185612f36565b612ee76060830184612f36565b6040810161339d8285612f36565b611fbf6020830184612f3f565b608081016133b88287612f36565b6133c56020830186612f3f565b61326b6040830185612f3f565b60405181810167ffffffffffffffff811182821017156133f4576133f4613582565b604052919050565b600067ffffffffffffffff82111561341657613416613582565b506020601f91909101601f19160190565b60200190565b60009081526020902090565b5190565b90815260200190565b919050565b6000613456826134c2565b9150613461836134c2565b9250821982111561347457613474613556565b500190565b6000613484826134c2565b915061348f836134c2565b9250828210156134a1576134a1613556565b500390565b60006124c8826134b6565b151590565b6001600160a01b031690565b90565b60ff1690565b82818337506000910152565b60005b838110156134f25781810151838201526020016134da565b83811115612e765750506000910152565b60028104600182168061351757607f821691505b6020821081141561352a5761352a61356c565b50919050565b600061353b826134c2565b915060001982141561354f5761354f613556565b5060010190565b634e487b7160e01b600052601160045260246000fd5b634e487b7160e01b600052602260045260246000fd5b634e487b7160e01b600052604160045260246000fd5b601f01601f191690565b6135ab816134a6565b81146135b657600080fd5b50565b6135ab816134c256fe05d9553e7dc480ca9d0dcd5a80f1b6696cdb7c57090687f84eca11ac2d8f5f27df7efc9f6f5bce44cbf5db3d8362387f6d02e0566c37fb4ed10cd3d05b35ecad0538ab32a957d2b55d0ec70a4029e73fdf19f500832839b1d7bafcfbca2a5630a264697066735822122026ed6f4372068e26d5bace515cff5509c251688c55e997cc88a267088ef0898564736f6c63430008000033",
  "immutableReferences": {},
  "source": "// //SPDX-License-Identifier: MIT\r\n\r\n// pragma solidity ^0.8.0;\r\n\r\n// // In AgriSupplyChain.sol\r\n// import { IAgriSupplyChain } from \"./IAgriSupplyChain.sol\";\r\n// import { ProductStructs } from \"./ProductStructs.sol\";\r\n\r\n// contract AgriSupplyChain is IAgriSupplyChain {\r\n//     using ProductStructs for ProductStructs.Product;\r\n\r\n//     mapping(uint256 => ProductStructs.Product) public products;\r\n//     uint256 public productCount;\r\n//     mapping(address => string) public userRoles;\r\n\r\n//     uint8 constant CREATED = 0;\r\n//     uint8 constant COLLECTED = 1;\r\n//     uint8 constant IN_TRANSIT = 2;\r\n//     uint8 constant WITH_DISTRIBUTOR = 3;\r\n//     uint8 constant WITH_RETAILER = 4;\r\n//     uint8 constant SOLD = 5;\r\n\r\n//     constructor() {\r\n//         productCount = 0;\r\n//         userRoles[msg.sender] = \"ADMIN\";\r\n//     }\r\n\r\n//     function registerUser(address _user, string memory _role) public override {\r\n//         require(\r\n//             keccak256(bytes(userRoles[msg.sender])) == keccak256(bytes(\"ADMIN\")) ||\r\n//             bytes(userRoles[_user]).length == 0,\r\n//             \"Unauthorized or user already registered\"\r\n//         );\r\n//         userRoles[_user] = _role;\r\n//     }\r\n\r\n//     function createProduct(string memory _name, uint256 _basePrice) public {\r\n//         require(bytes(userRoles[msg.sender]).length > 0, \"User not registered\");\r\n//         require(keccak256(bytes(userRoles[msg.sender])) == keccak256(bytes(\"FARMER\")), \"Only farmers can create products\");\r\n\r\n//         productCount++;\r\n\r\n//         ProductStructs.ProductDetails memory details = ProductStructs.ProductDetails({\r\n//             name: _name,\r\n//             basePrice: _basePrice,\r\n//             isValid: true,\r\n//             isPaid: false\r\n//         });\r\n\r\n//         ProductStructs.ProductActors memory actors = ProductStructs.ProductActors({\r\n//             farmer: msg.sender,\r\n//             collector: address(0),\r\n//             transporter: address(0),\r\n//             distributor: address(0),\r\n//             retailer: address(0),\r\n//             consumer: address(0)\r\n//         });\r\n\r\n//         ProductStructs.ProductFees memory fees = ProductStructs.ProductFees({\r\n//             collectorFee: 0,\r\n//             transporterFee: 0,\r\n//             distributorFee: 0,\r\n//             retailerFee: 0\r\n//         });\r\n\r\n//         products[productCount] = ProductStructs.Product({\r\n//             id: productCount,\r\n//             details: details,\r\n//             actors: actors,\r\n//             fees: fees,\r\n//             state: CREATED\r\n//         });\r\n\r\n//         emit ProductCreated(productCount, _name, _basePrice, msg.sender);\r\n//     }\r\n\r\n//     function collectProduct(uint256 _productId, uint256 _collectorFee) public payable {\r\n//         require(bytes(userRoles[msg.sender]).length > 0, \"User not registered\");\r\n//         require(keccak256(bytes(userRoles[msg.sender])) == keccak256(bytes(\"COLLECTOR\")), \"Only collectors can collect products\");\r\n//         require(products[_productId].details.isValid, \"Product does not exist\");\r\n//         require(products[_productId].state == CREATED, \"Product not in correct state\");\r\n//         require(msg.value >= products[_productId].details.basePrice, \"Insufficient payment for farmer\");\r\n\r\n//         payable(products[_productId].actors.farmer).transfer(products[_productId].details.basePrice);\r\n\r\n//         products[_productId].actors.collector = msg.sender;\r\n//         products[_productId].fees.collectorFee = _collectorFee;\r\n//         products[_productId].state = COLLECTED;\r\n//         products[_productId].details.isPaid = false;\r\n\r\n//         emit PaymentProcessed(msg.sender, products[_productId].actors.farmer, products[_productId].details.basePrice);\r\n//         emit FeeAdded(_productId, msg.sender, _collectorFee);\r\n//         emit ProductStateChanged(_productId, COLLECTED);\r\n//     }\r\n\r\n//     function transportProduct(uint256 _productId, uint256 _transporterFee) public payable {\r\n//         require(bytes(userRoles[msg.sender]).length > 0, \"User not registered\");\r\n//         require(keccak256(bytes(userRoles[msg.sender])) == keccak256(bytes(\"TRANSPORTER\")), \"Only transporters can transport products\");\r\n//         require(products[_productId].state == COLLECTED, \"Product not in correct state\");\r\n//         require(msg.value >= products[_productId].fees.collectorFee, \"Insufficient payment for collector\");\r\n\r\n//         payable(products[_productId].actors.collector).transfer(products[_productId].fees.collectorFee);\r\n\r\n//         products[_productId].actors.transporter = msg.sender;\r\n//         products[_productId].fees.transporterFee = _transporterFee;\r\n//         products[_productId].state = IN_TRANSIT;\r\n//         products[_productId].details.isPaid = false;\r\n\r\n//         emit PaymentProcessed(msg.sender, products[_productId].actors.collector, products[_productId].fees.collectorFee);\r\n//         emit FeeAdded(_productId, msg.sender, _transporterFee);\r\n//         emit ProductStateChanged(_productId, IN_TRANSIT);\r\n//     }\r\n\r\n//     function distributeProduct(uint256 _productId, uint256 _distributorFee) public payable {\r\n//         require(bytes(userRoles[msg.sender]).length > 0, \"User not registered\");\r\n//         require(keccak256(bytes(userRoles[msg.sender])) == keccak256(bytes(\"DISTRIBUTOR\")), \"Only distributors can receive products\");\r\n//         require(products[_productId].state == IN_TRANSIT, \"Product not in correct state\");\r\n//         require(msg.value >= products[_productId].fees.transporterFee, \"Insufficient payment for transporter\");\r\n\r\n//         payable(products[_productId].actors.transporter).transfer(products[_productId].fees.transporterFee);\r\n\r\n//         products[_productId].actors.distributor = msg.sender;\r\n//         products[_productId].fees.distributorFee = _distributorFee;\r\n//         products[_productId].state = WITH_DISTRIBUTOR;\r\n//         products[_productId].details.isPaid = false;\r\n\r\n//         emit PaymentProcessed(msg.sender, products[_productId].actors.transporter, products[_productId].fees.transporterFee);\r\n//         emit FeeAdded(_productId, msg.sender, _distributorFee);\r\n//         emit ProductStateChanged(_productId, WITH_DISTRIBUTOR);\r\n//     }\r\n\r\n//     function sendToRetailer(uint256 _productId, uint256 _retailerFee) public payable {\r\n//         require(bytes(userRoles[msg.sender]).length > 0, \"User not registered\");\r\n//         require(keccak256(bytes(userRoles[msg.sender])) == keccak256(bytes(\"RETAILER\")), \"Only retailers can receive products\");\r\n//         require(products[_productId].state == WITH_DISTRIBUTOR, \"Product not in correct state\");\r\n//         require(msg.value >= products[_productId].fees.distributorFee, \"Insufficient payment for distributor\");\r\n\r\n//         payable(products[_productId].actors.distributor).transfer(products[_productId].fees.distributorFee);\r\n\r\n//         products[_productId].actors.retailer = msg.sender;\r\n//         products[_productId].fees.retailerFee = _retailerFee;\r\n//         products[_productId].state = WITH_RETAILER;\r\n//         products[_productId].details.isPaid = false;\r\n\r\n//         emit PaymentProcessed(msg.sender, products[_productId].actors.distributor, products[_productId].fees.distributorFee);\r\n//         emit FeeAdded(_productId, msg.sender, _retailerFee);\r\n//         emit ProductStateChanged(_productId, WITH_RETAILER);\r\n//     }\r\n\r\n//     function purchaseProduct(uint256 _productId) public payable {\r\n//         require(products[_productId].details.isValid, \"Product does not exist\");\r\n//         require(products[_productId].state == WITH_RETAILER, \"Product not available for purchase\");\r\n//         require(msg.value >= products[_productId].fees.retailerFee, \"Insufficient payment for retailer\");\r\n\r\n//         payable(products[_productId].actors.retailer).transfer(products[_productId].fees.retailerFee);\r\n\r\n//         products[_productId].actors.consumer = msg.sender;\r\n//         products[_productId].state = SOLD;\r\n//         products[_productId].details.isPaid = true;\r\n\r\n//         emit PaymentProcessed(msg.sender, products[_productId].actors.retailer, products[_productId].fees.retailerFee);\r\n//         emit ProductStateChanged(_productId, SOLD);\r\n//     }\r\n\r\n//     function getProductBasicInfo(uint256 _productId) public view override returns (\r\n//         uint256 id,\r\n//         string memory name,\r\n//         uint256 basePrice,\r\n//         uint8 state,\r\n//         bool isValid\r\n//     ) {\r\n//         ProductStructs.Product storage product = products[_productId];\r\n//         return (\r\n//             product.id,\r\n//             product.details.name,\r\n//             product.details.basePrice,\r\n//             product.state,\r\n//             product.details.isValid\r\n//         );\r\n//     }\r\n\r\n//     function getProductFees(uint256 _productId) public view override returns (\r\n//         uint256 collectorFee,\r\n//         uint256 transporterFee,\r\n//         uint256 distributorFee,\r\n//         uint256 retailerFee\r\n//     ) {\r\n//         ProductStructs.ProductFees storage fees = products[_productId].fees;\r\n//         return (\r\n//             fees.collectorFee,\r\n//             fees.transporterFee,\r\n//             fees.distributorFee,\r\n//             fees.retailerFee\r\n//         );\r\n//     }\r\n\r\n//     function getProductActors(uint256 _productId) public view override returns (\r\n//         address farmer,\r\n//         address collector,\r\n//         address transporter,\r\n//         address distributor,\r\n//         address retailer,\r\n//         address consumer\r\n//     ) {\r\n//         ProductStructs.ProductActors storage actors = products[_productId].actors;\r\n//         return (\r\n//             actors.farmer,\r\n//             actors.collector,\r\n//             actors.transporter,\r\n//             actors.distributor,\r\n//             actors.retailer,\r\n//             actors.consumer\r\n//         );\r\n//     }\r\n\r\n//     function getTotalPrice(uint256 _productId) public view returns (uint256) {\r\n//         ProductStructs.Product storage product = products[_productId];\r\n//         return product.details.basePrice +\r\n//                product.fees.collectorFee +\r\n//                product.fees.transporterFee +\r\n//                product.fees.distributorFee +\r\n//                product.fees.retailerFee;\r\n//     }\r\n// }\r\n\r\npragma solidity ^0.8.0;\r\n\r\n// In AgriSupplyChain.sol\r\nimport {IAgriSupplyChain} from \"./IAgriSupplyChain.sol\";\r\nimport {ProductStructs} from \"./ProductStructs.sol\";\r\n\r\ncontract AgriSupplyChain is IAgriSupplyChain {\r\n    using ProductStructs for ProductStructs.Product;\r\n\r\n    mapping(uint256 => ProductStructs.Product) public products;\r\n    uint256 public productCount;\r\n    mapping(address => string) public userRoles;\r\n\r\n    struct Payment {\r\n        address from;\r\n        address to;\r\n        uint256 amount;\r\n        uint8 fromState;\r\n        uint8 toState;\r\n        uint256 timestamp;\r\n    }\r\n\r\n    mapping(uint256 => Payment[]) public productPayments;\r\n\r\n    address public constant ADMIN = 0xF7084F4E361ce391EFD9F983d13887322A0Bc86f;\r\n\r\n    uint8 constant CREATED = 0;\r\n    uint8 constant COLLECTED = 1;\r\n    uint8 constant IN_TRANSIT = 2;\r\n    uint8 constant WITH_DISTRIBUTOR = 3;\r\n    uint8 constant WITH_RETAILER = 4;\r\n    uint8 constant SOLD = 5;\r\n\r\n    event TransactionReverted(\r\n        uint256 productId,\r\n        uint8 fromState,\r\n        uint8 toState,\r\n        address by\r\n    );\r\n\r\n    modifier onlyAdmin() {\r\n        require(msg.sender == ADMIN, \"Only admin can perform this action\");\r\n        _;\r\n    }\r\n\r\n    constructor() {\r\n        productCount = 0;\r\n        userRoles[ADMIN] = \"ADMIN\";\r\n    }\r\n\r\n    function recordPayment(\r\n        uint256 _productId,\r\n        address _from,\r\n        address _to,\r\n        uint256 _amount,\r\n        uint8 _fromState,\r\n        uint8 _toState\r\n    ) internal {\r\n        Payment memory newPayment = Payment({\r\n            from: _from,\r\n            to: _to,\r\n            amount: _amount,\r\n            fromState: _fromState,\r\n            toState: _toState,\r\n            timestamp: block.timestamp\r\n        });\r\n        productPayments[_productId].push(newPayment);\r\n    }\r\n\r\n    // function revertTransaction(uint256 _productId) public onlyAdmin {\r\n    //     ProductStructs.Product storage product = products[_productId];\r\n    //     require(product.details.isValid, \"Product does not exist\");\r\n    //     require(product.state != CREATED, \"Cannot revert initial state\");\r\n\r\n    //     Payment[] storage payments = productPayments[_productId];\r\n    //     require(payments.length > 0, \"No payments to revert\");\r\n\r\n    //     // Get the last payment\r\n    //     Payment storage lastPayment = payments[payments.length - 1];\r\n\r\n    //     // Refund the payment\r\n    //     payable(lastPayment.from).transfer(lastPayment.amount);\r\n\r\n    //     // Revert the state\r\n    //     product.state = lastPayment.fromState;\r\n\r\n    //     // Reset the appropriate actor and fee based on the state\r\n    //     if (product.state == CREATED) {\r\n    //         product.actors.collector = address(0);\r\n    //         product.fees.collectorFee = 0;\r\n    //     } else if (product.state == COLLECTED) {\r\n    //         product.actors.transporter = address(0);\r\n    //         product.fees.transporterFee = 0;\r\n    //     } else if (product.state == IN_TRANSIT) {\r\n    //         product.actors.distributor = address(0);\r\n    //         product.fees.distributorFee = 0;\r\n    //     } else if (product.state == WITH_DISTRIBUTOR) {\r\n    //         product.actors.retailer = address(0);\r\n    //         product.fees.retailerFee = 0;\r\n    //     } else if (product.state == WITH_RETAILER) {\r\n    //         product.actors.consumer = address(0);\r\n    //     }\r\n\r\n    //     // Remove the last payment record\r\n    //     payments.pop();\r\n\r\n    //     emit TransactionReverted(\r\n    //         _productId,\r\n    //         lastPayment.toState,\r\n    //         lastPayment.fromState,\r\n    //         msg.sender\r\n    //     );\r\n    // }\r\n\r\n    function revertTransaction(uint256 _productId) public onlyAdmin {\r\n        ProductStructs.Product storage product = products[_productId];\r\n        require(product.details.isValid, \"Product does not exist\");\r\n        require(product.state != CREATED, \"Cannot revert initial state\");\r\n\r\n        Payment[] storage payments = productPayments[_productId];\r\n        require(payments.length > 0, \"No payments to revert\");\r\n\r\n        // Get the last payment\r\n        Payment storage lastPayment = payments[payments.length - 1];\r\n\r\n        // Check contract balance\r\n        require(\r\n            address(this).balance >= lastPayment.amount,\r\n            \"Insufficient contract balance for refund\"\r\n        );\r\n\r\n        // Check if state transition is valid\r\n        require(\r\n            lastPayment.toState == product.state,\r\n            \"Invalid state for reversion\"\r\n        );\r\n\r\n        // Refund the payment\r\n        (bool success, ) = payable(lastPayment.from).call{\r\n            value: lastPayment.amount\r\n        }(\"\");\r\n        require(success, \"Refund transfer failed\");\r\n\r\n        // Revert the state\r\n        product.state = lastPayment.fromState;\r\n\r\n        // Reset the appropriate actor and fee based on the state\r\n        if (product.state == CREATED) {\r\n            product.actors.collector = address(0);\r\n            product.fees.collectorFee = 0;\r\n        } else if (product.state == COLLECTED) {\r\n            product.actors.transporter = address(0);\r\n            product.fees.transporterFee = 0;\r\n        } else if (product.state == IN_TRANSIT) {\r\n            product.actors.distributor = address(0);\r\n            product.fees.distributorFee = 0;\r\n        } else if (product.state == WITH_DISTRIBUTOR) {\r\n            product.actors.retailer = address(0);\r\n            product.fees.retailerFee = 0;\r\n        } else if (product.state == WITH_RETAILER) {\r\n            product.actors.consumer = address(0);\r\n        }\r\n\r\n        // Remove the last payment record\r\n        payments.pop();\r\n\r\n        emit TransactionReverted(\r\n            _productId,\r\n            lastPayment.toState,\r\n            lastPayment.fromState,\r\n            msg.sender\r\n        );\r\n    }\r\n\r\n    function registerUser(address _user, string memory _role) public override {\r\n        require(\r\n            keccak256(bytes(userRoles[msg.sender])) ==\r\n                keccak256(bytes(\"ADMIN\")) ||\r\n                bytes(userRoles[_user]).length == 0,\r\n            \"Unauthorized or user already registered\"\r\n        );\r\n        userRoles[_user] = _role;\r\n    }\r\n\r\n    function createProduct(string memory _name, uint256 _basePrice) public {\r\n        require(bytes(userRoles[msg.sender]).length > 0, \"User not registered\");\r\n        require(\r\n            keccak256(bytes(userRoles[msg.sender])) ==\r\n                keccak256(bytes(\"FARMER\")),\r\n            \"Only farmers can create products\"\r\n        );\r\n\r\n        productCount++;\r\n\r\n        ProductStructs.ProductDetails memory details = ProductStructs\r\n            .ProductDetails({\r\n                name: _name,\r\n                basePrice: _basePrice,\r\n                isValid: true,\r\n                isPaid: false,\r\n                location: ProductStructs.Location({\r\n                    district: \"\",\r\n                    localBody: \"\",\r\n                    distance: 0\r\n                })\r\n            });\r\n\r\n        ProductStructs.ProductActors memory actors = ProductStructs\r\n            .ProductActors({\r\n                farmer: msg.sender,\r\n                collector: address(0),\r\n                transporter: address(0),\r\n                distributor: address(0),\r\n                retailer: address(0),\r\n                consumer: address(0)\r\n            });\r\n\r\n        ProductStructs.ProductFees memory fees = ProductStructs.ProductFees({\r\n            collectorFee: 0,\r\n            transporterFee: 0,\r\n            distributorFee: 0,\r\n            retailerFee: 0\r\n        });\r\n\r\n        products[productCount] = ProductStructs.Product({\r\n            id: productCount,\r\n            details: details,\r\n            actors: actors,\r\n            fees: fees,\r\n            state: CREATED\r\n        });\r\n\r\n        emit ProductCreated(productCount, _name, _basePrice, msg.sender);\r\n    }\r\n\r\n    function collectProduct(\r\n        uint256 _productId,\r\n        uint256 _collectorFee,\r\n        string memory _district,\r\n        string memory _localBody,\r\n        uint256 _distance\r\n    ) public payable {\r\n        require(bytes(userRoles[msg.sender]).length > 0, \"User not registered\");\r\n        require(\r\n            keccak256(bytes(userRoles[msg.sender])) ==\r\n                keccak256(bytes(\"COLLECTOR\")),\r\n            \"Only collectors can collect products\"\r\n        );\r\n        require(products[_productId].details.isValid, \"Product does not exist\");\r\n        require(\r\n            products[_productId].state == CREATED,\r\n            \"Product not in correct state\"\r\n        );\r\n        require(\r\n            msg.value >= products[_productId].details.basePrice,\r\n            \"Insufficient payment for farmer\"\r\n        );\r\n\r\n        payable(products[_productId].actors.farmer).transfer(\r\n            products[_productId].details.basePrice\r\n        );\r\n\r\n        products[_productId].actors.collector = msg.sender;\r\n        products[_productId].fees.collectorFee = _collectorFee;\r\n        products[_productId].state = COLLECTED;\r\n        products[_productId].details.isPaid = false;\r\n\r\n        // Store the location and distance information\r\n        products[_productId].details.location.district = _district;\r\n        products[_productId].details.location.localBody = _localBody;\r\n        products[_productId].details.location.distance = _distance;\r\n\r\n        recordPayment(\r\n            _productId,\r\n            msg.sender,\r\n            products[_productId].actors.farmer,\r\n            msg.value,\r\n            CREATED,\r\n            COLLECTED\r\n        );\r\n\r\n        emit PaymentProcessed(\r\n            msg.sender,\r\n            products[_productId].actors.farmer,\r\n            products[_productId].details.basePrice\r\n        );\r\n        emit FeeAdded(_productId, msg.sender, _collectorFee);\r\n        emit ProductStateChanged(_productId, COLLECTED);\r\n    }\r\n\r\n    function transportProduct(\r\n        uint256 _productId,\r\n        uint256 _transporterFee\r\n    ) public payable {\r\n        require(bytes(userRoles[msg.sender]).length > 0, \"User not registered\");\r\n        require(\r\n            keccak256(bytes(userRoles[msg.sender])) ==\r\n                keccak256(bytes(\"TRANSPORTER\")),\r\n            \"Only transporters can transport products\"\r\n        );\r\n        require(\r\n            products[_productId].state == COLLECTED,\r\n            \"Product not in correct state\"\r\n        );\r\n        require(\r\n            msg.value >= products[_productId].fees.collectorFee,\r\n            \"Insufficient payment for collector\"\r\n        );\r\n\r\n        payable(products[_productId].actors.collector).transfer(\r\n            products[_productId].fees.collectorFee\r\n        );\r\n\r\n        products[_productId].actors.transporter = msg.sender;\r\n        products[_productId].fees.transporterFee = _transporterFee;\r\n        products[_productId].state = IN_TRANSIT;\r\n        products[_productId].details.isPaid = false;\r\n\r\n        recordPayment(\r\n            _productId,\r\n            msg.sender,\r\n            products[_productId].actors.collector,\r\n            msg.value,\r\n            COLLECTED,\r\n            IN_TRANSIT\r\n        );\r\n\r\n        emit PaymentProcessed(\r\n            msg.sender,\r\n            products[_productId].actors.collector,\r\n            products[_productId].fees.collectorFee\r\n        );\r\n        emit FeeAdded(_productId, msg.sender, _transporterFee);\r\n        emit ProductStateChanged(_productId, IN_TRANSIT);\r\n    }\r\n\r\n    function distributeProduct(\r\n        uint256 _productId,\r\n        uint256 _distributorFee\r\n    ) public payable {\r\n        require(bytes(userRoles[msg.sender]).length > 0, \"User not registered\");\r\n        require(\r\n            keccak256(bytes(userRoles[msg.sender])) ==\r\n                keccak256(bytes(\"DISTRIBUTOR\")),\r\n            \"Only distributors can receive products\"\r\n        );\r\n        require(\r\n            products[_productId].state == IN_TRANSIT,\r\n            \"Product not in correct state\"\r\n        );\r\n        require(\r\n            msg.value >= products[_productId].fees.transporterFee,\r\n            \"Insufficient payment for transporter\"\r\n        );\r\n\r\n        payable(products[_productId].actors.transporter).transfer(\r\n            products[_productId].fees.transporterFee\r\n        );\r\n\r\n        products[_productId].actors.distributor = msg.sender;\r\n        products[_productId].fees.distributorFee = _distributorFee;\r\n        products[_productId].state = WITH_DISTRIBUTOR;\r\n        products[_productId].details.isPaid = false;\r\n\r\n        recordPayment(\r\n            _productId,\r\n            msg.sender,\r\n            products[_productId].actors.transporter,\r\n            msg.value,\r\n            IN_TRANSIT,\r\n            WITH_DISTRIBUTOR\r\n        );\r\n\r\n        emit PaymentProcessed(\r\n            msg.sender,\r\n            products[_productId].actors.transporter,\r\n            products[_productId].fees.transporterFee\r\n        );\r\n        emit FeeAdded(_productId, msg.sender, _distributorFee);\r\n        emit ProductStateChanged(_productId, WITH_DISTRIBUTOR);\r\n    }\r\n\r\n    function sendToRetailer(\r\n        uint256 _productId,\r\n        uint256 _retailerFee\r\n    ) public payable {\r\n        require(bytes(userRoles[msg.sender]).length > 0, \"User not registered\");\r\n        require(\r\n            keccak256(bytes(userRoles[msg.sender])) ==\r\n                keccak256(bytes(\"RETAILER\")),\r\n            \"Only retailers can receive products\"\r\n        );\r\n        require(\r\n            products[_productId].state == WITH_DISTRIBUTOR,\r\n            \"Product not in correct state\"\r\n        );\r\n        require(\r\n            msg.value >= products[_productId].fees.distributorFee,\r\n            \"Insufficient payment for distributor\"\r\n        );\r\n\r\n        payable(products[_productId].actors.distributor).transfer(\r\n            products[_productId].fees.distributorFee\r\n        );\r\n\r\n        products[_productId].actors.retailer = msg.sender;\r\n        products[_productId].fees.retailerFee = _retailerFee;\r\n        products[_productId].state = WITH_RETAILER;\r\n        products[_productId].details.isPaid = false;\r\n\r\n        recordPayment(\r\n            _productId,\r\n            msg.sender,\r\n            products[_productId].actors.distributor,\r\n            msg.value,\r\n            WITH_DISTRIBUTOR,\r\n            WITH_RETAILER\r\n        );\r\n\r\n        emit PaymentProcessed(\r\n            msg.sender,\r\n            products[_productId].actors.distributor,\r\n            products[_productId].fees.distributorFee\r\n        );\r\n        emit FeeAdded(_productId, msg.sender, _retailerFee);\r\n        emit ProductStateChanged(_productId, WITH_RETAILER);\r\n    }\r\n\r\n    function purchaseProduct(uint256 _productId) public payable {\r\n        require(products[_productId].details.isValid, \"Product does not exist\");\r\n        require(\r\n            products[_productId].state == WITH_RETAILER,\r\n            \"Product not available for purchase\"\r\n        );\r\n        require(\r\n            msg.value >= products[_productId].fees.retailerFee,\r\n            \"Insufficient payment for retailer\"\r\n        );\r\n\r\n        payable(products[_productId].actors.retailer).transfer(\r\n            products[_productId].fees.retailerFee\r\n        );\r\n\r\n        products[_productId].actors.consumer = msg.sender;\r\n        products[_productId].state = SOLD;\r\n        products[_productId].details.isPaid = true;\r\n\r\n        recordPayment(\r\n            _productId,\r\n            msg.sender,\r\n            products[_productId].actors.retailer,\r\n            msg.value,\r\n            WITH_RETAILER,\r\n            SOLD\r\n        );\r\n\r\n        emit PaymentProcessed(\r\n            msg.sender,\r\n            products[_productId].actors.retailer,\r\n            products[_productId].fees.retailerFee\r\n        );\r\n        emit ProductStateChanged(_productId, SOLD);\r\n    }\r\n\r\n    function getProductTransactions(\r\n        uint256 _productId\r\n    )\r\n        public\r\n        view\r\n        onlyAdmin\r\n        returns (\r\n            address[] memory from,\r\n            address[] memory to,\r\n            uint256[] memory amounts,\r\n            uint8[] memory fromStates,\r\n            uint8[] memory toStates,\r\n            uint256[] memory timestamps\r\n        )\r\n    {\r\n        Payment[] storage payments = productPayments[_productId];\r\n        uint256 length = payments.length;\r\n\r\n        from = new address[](length);\r\n        to = new address[](length);\r\n        amounts = new uint256[](length);\r\n        fromStates = new uint8[](length);\r\n        toStates = new uint8[](length);\r\n        timestamps = new uint256[](length);\r\n\r\n        for (uint256 i = 0; i < length; i++) {\r\n            from[i] = payments[i].from;\r\n            to[i] = payments[i].to;\r\n            amounts[i] = payments[i].amount;\r\n            fromStates[i] = payments[i].fromState;\r\n            toStates[i] = payments[i].toState;\r\n            timestamps[i] = payments[i].timestamp;\r\n        }\r\n\r\n        return (from, to, amounts, fromStates, toStates, timestamps);\r\n    }\r\n\r\n    function getProductBasicInfo(\r\n        uint256 _productId\r\n    )\r\n        public\r\n        view\r\n        override\r\n        returns (\r\n            uint256 id,\r\n            string memory name,\r\n            uint256 basePrice,\r\n            uint8 state,\r\n            bool isValid,\r\n            string memory district,\r\n            string memory localBody,\r\n            uint256 distance\r\n        )\r\n    {\r\n        ProductStructs.Product storage product = products[_productId];\r\n        return (\r\n            product.id,\r\n            product.details.name,\r\n            product.details.basePrice,\r\n            product.state,\r\n            product.details.isValid,\r\n            product.details.location.district,\r\n            product.details.location.localBody,\r\n            product.details.location.distance\r\n        );\r\n    }\r\n\r\n    function getProductFees(\r\n        uint256 _productId\r\n    )\r\n        public\r\n        view\r\n        override\r\n        returns (\r\n            uint256 collectorFee,\r\n            uint256 transporterFee,\r\n            uint256 distributorFee,\r\n            uint256 retailerFee\r\n        )\r\n    {\r\n        ProductStructs.ProductFees storage fees = products[_productId].fees;\r\n        return (\r\n            fees.collectorFee,\r\n            fees.transporterFee,\r\n            fees.distributorFee,\r\n            fees.retailerFee\r\n        );\r\n    }\r\n\r\n    function getProductActors(\r\n        uint256 _productId\r\n    )\r\n        public\r\n        view\r\n        override\r\n        returns (\r\n            address farmer,\r\n            address collector,\r\n            address transporter,\r\n            address distributor,\r\n            address retailer,\r\n            address consumer\r\n        )\r\n    {\r\n        ProductStructs.ProductActors storage actors = products[_productId]\r\n            .actors;\r\n        return (\r\n            actors.farmer,\r\n            actors.collector,\r\n            actors.transporter,\r\n            actors.distributor,\r\n            actors.retailer,\r\n            actors.consumer\r\n        );\r\n    }\r\n\r\n    function getTotalPrice(uint256 _productId) public view returns (uint256) {\r\n        ProductStructs.Product storage product = products[_productId];\r\n        return\r\n            product.details.basePrice +\r\n            product.fees.collectorFee +\r\n            product.fees.transporterFee +\r\n            product.fees.distributorFee +\r\n            product.fees.retailerFee;\r\n    }\r\n}\r\n",
  "sourcePath": "C:\\Users\\Dell\\OneDrive\\Desktop\\agriculture-supply-chain\\contracts\\AgriSupplyChain.sol",
  "compiler": {
    "name": "solc",
    "version": "0.8.0+commit.c7dfd78e.Emscripten.clang"
  },
  "schemaVersion": "3.4.16",
  "updatedAt": "2025-01-19T13:34:19.205Z",
  "networkType": "ethereum",
  "devdoc": {
    "kind": "dev",
    "methods": {},
    "version": 1
  },
  "userdoc": {
    "kind": "user",
    "methods": {},
    "version": 1
  }
}