{
  "contractName": "AgriSupplyChain",
  "abi": [
    {
      "inputs": [],
      "stateMutability": "nonpayable",
      "type": "constructor"
    },
    {
      "anonymous": false,
      "inputs": [
        {
          "indexed": false,
          "internalType": "uint256",
          "name": "productId",
          "type": "uint256"
        },
        {
          "indexed": false,
          "internalType": "address",
          "name": "entity",
          "type": "address"
        },
        {
          "indexed": false,
          "internalType": "uint256",
          "name": "fee",
          "type": "uint256"
        }
      ],
      "name": "FeeAdded",
      "type": "event"
    },
    {
      "anonymous": false,
      "inputs": [
        {
          "indexed": false,
          "internalType": "address",
          "name": "from",
          "type": "address"
        },
        {
          "indexed": false,
          "internalType": "address",
          "name": "to",
          "type": "address"
        },
        {
          "indexed": false,
          "internalType": "uint256",
          "name": "amount",
          "type": "uint256"
        }
      ],
      "name": "PaymentProcessed",
      "type": "event"
    },
    {
      "anonymous": false,
      "inputs": [
        {
          "indexed": false,
          "internalType": "uint256",
          "name": "productId",
          "type": "uint256"
        },
        {
          "indexed": false,
          "internalType": "string",
          "name": "name",
          "type": "string"
        },
        {
          "indexed": false,
          "internalType": "uint256",
          "name": "price",
          "type": "uint256"
        },
        {
          "indexed": false,
          "internalType": "address",
          "name": "farmer",
          "type": "address"
        }
      ],
      "name": "ProductCreated",
      "type": "event"
    },
    {
      "anonymous": false,
      "inputs": [
        {
          "indexed": false,
          "internalType": "uint256",
          "name": "productId",
          "type": "uint256"
        },
        {
          "indexed": false,
          "internalType": "uint8",
          "name": "newState",
          "type": "uint8"
        }
      ],
      "name": "ProductStateChanged",
      "type": "event"
    },
    {
      "inputs": [],
      "name": "productCount",
      "outputs": [
        {
          "internalType": "uint256",
          "name": "",
          "type": "uint256"
        }
      ],
      "stateMutability": "view",
      "type": "function",
      "constant": true
    },
    {
      "inputs": [
        {
          "internalType": "uint256",
          "name": "",
          "type": "uint256"
        }
      ],
      "name": "products",
      "outputs": [
        {
          "internalType": "uint256",
          "name": "id",
          "type": "uint256"
        },
        {
          "components": [
            {
              "internalType": "string",
              "name": "name",
              "type": "string"
            },
            {
              "internalType": "uint256",
              "name": "basePrice",
              "type": "uint256"
            },
            {
              "internalType": "bool",
              "name": "isValid",
              "type": "bool"
            },
            {
              "internalType": "bool",
              "name": "isPaid",
              "type": "bool"
            }
          ],
          "internalType": "struct ProductStructs.ProductDetails",
          "name": "details",
          "type": "tuple"
        },
        {
          "components": [
            {
              "internalType": "address",
              "name": "farmer",
              "type": "address"
            },
            {
              "internalType": "address",
              "name": "collector",
              "type": "address"
            },
            {
              "internalType": "address",
              "name": "transporter",
              "type": "address"
            },
            {
              "internalType": "address",
              "name": "distributor",
              "type": "address"
            },
            {
              "internalType": "address",
              "name": "retailer",
              "type": "address"
            },
            {
              "internalType": "address",
              "name": "consumer",
              "type": "address"
            }
          ],
          "internalType": "struct ProductStructs.ProductActors",
          "name": "actors",
          "type": "tuple"
        },
        {
          "components": [
            {
              "internalType": "uint256",
              "name": "collectorFee",
              "type": "uint256"
            },
            {
              "internalType": "uint256",
              "name": "transporterFee",
              "type": "uint256"
            },
            {
              "internalType": "uint256",
              "name": "distributorFee",
              "type": "uint256"
            },
            {
              "internalType": "uint256",
              "name": "retailerFee",
              "type": "uint256"
            }
          ],
          "internalType": "struct ProductStructs.ProductFees",
          "name": "fees",
          "type": "tuple"
        },
        {
          "internalType": "uint8",
          "name": "state",
          "type": "uint8"
        }
      ],
      "stateMutability": "view",
      "type": "function",
      "constant": true
    },
    {
      "inputs": [
        {
          "internalType": "address",
          "name": "",
          "type": "address"
        }
      ],
      "name": "userRoles",
      "outputs": [
        {
          "internalType": "string",
          "name": "",
          "type": "string"
        }
      ],
      "stateMutability": "view",
      "type": "function",
      "constant": true
    },
    {
      "inputs": [
        {
          "internalType": "address",
          "name": "_user",
          "type": "address"
        },
        {
          "internalType": "string",
          "name": "_role",
          "type": "string"
        }
      ],
      "name": "registerUser",
      "outputs": [],
      "stateMutability": "nonpayable",
      "type": "function"
    },
    {
      "inputs": [
        {
          "internalType": "string",
          "name": "_name",
          "type": "string"
        },
        {
          "internalType": "uint256",
          "name": "_basePrice",
          "type": "uint256"
        }
      ],
      "name": "createProduct",
      "outputs": [],
      "stateMutability": "nonpayable",
      "type": "function"
    },
    {
      "inputs": [
        {
          "internalType": "uint256",
          "name": "_productId",
          "type": "uint256"
        },
        {
          "internalType": "uint256",
          "name": "_collectorFee",
          "type": "uint256"
        }
      ],
      "name": "collectProduct",
      "outputs": [],
      "stateMutability": "payable",
      "type": "function",
      "payable": true
    },
    {
      "inputs": [
        {
          "internalType": "uint256",
          "name": "_productId",
          "type": "uint256"
        },
        {
          "internalType": "uint256",
          "name": "_transporterFee",
          "type": "uint256"
        }
      ],
      "name": "transportProduct",
      "outputs": [],
      "stateMutability": "payable",
      "type": "function",
      "payable": true
    },
    {
      "inputs": [
        {
          "internalType": "uint256",
          "name": "_productId",
          "type": "uint256"
        },
        {
          "internalType": "uint256",
          "name": "_distributorFee",
          "type": "uint256"
        }
      ],
      "name": "distributeProduct",
      "outputs": [],
      "stateMutability": "payable",
      "type": "function",
      "payable": true
    },
    {
      "inputs": [
        {
          "internalType": "uint256",
          "name": "_productId",
          "type": "uint256"
        },
        {
          "internalType": "uint256",
          "name": "_retailerFee",
          "type": "uint256"
        }
      ],
      "name": "sendToRetailer",
      "outputs": [],
      "stateMutability": "payable",
      "type": "function",
      "payable": true
    },
    {
      "inputs": [
        {
          "internalType": "uint256",
          "name": "_productId",
          "type": "uint256"
        }
      ],
      "name": "purchaseProduct",
      "outputs": [],
      "stateMutability": "payable",
      "type": "function",
      "payable": true
    },
    {
      "inputs": [
        {
          "internalType": "uint256",
          "name": "_productId",
          "type": "uint256"
        }
      ],
      "name": "getProductBasicInfo",
      "outputs": [
        {
          "internalType": "uint256",
          "name": "id",
          "type": "uint256"
        },
        {
          "internalType": "string",
          "name": "name",
          "type": "string"
        },
        {
          "internalType": "uint256",
          "name": "basePrice",
          "type": "uint256"
        },
        {
          "internalType": "uint8",
          "name": "state",
          "type": "uint8"
        },
        {
          "internalType": "bool",
          "name": "isValid",
          "type": "bool"
        }
      ],
      "stateMutability": "view",
      "type": "function",
      "constant": true
    },
    {
      "inputs": [
        {
          "internalType": "uint256",
          "name": "_productId",
          "type": "uint256"
        }
      ],
      "name": "getProductFees",
      "outputs": [
        {
          "internalType": "uint256",
          "name": "collectorFee",
          "type": "uint256"
        },
        {
          "internalType": "uint256",
          "name": "transporterFee",
          "type": "uint256"
        },
        {
          "internalType": "uint256",
          "name": "distributorFee",
          "type": "uint256"
        },
        {
          "internalType": "uint256",
          "name": "retailerFee",
          "type": "uint256"
        }
      ],
      "stateMutability": "view",
      "type": "function",
      "constant": true
    },
    {
      "inputs": [
        {
          "internalType": "uint256",
          "name": "_productId",
          "type": "uint256"
        }
      ],
      "name": "getProductActors",
      "outputs": [
        {
          "internalType": "address",
          "name": "farmer",
          "type": "address"
        },
        {
          "internalType": "address",
          "name": "collector",
          "type": "address"
        },
        {
          "internalType": "address",
          "name": "transporter",
          "type": "address"
        },
        {
          "internalType": "address",
          "name": "distributor",
          "type": "address"
        },
        {
          "internalType": "address",
          "name": "retailer",
          "type": "address"
        },
        {
          "internalType": "address",
          "name": "consumer",
          "type": "address"
        }
      ],
      "stateMutability": "view",
      "type": "function",
      "constant": true
    },
    {
      "inputs": [
        {
          "internalType": "uint256",
          "name": "_productId",
          "type": "uint256"
        }
      ],
      "name": "getTotalPrice",
      "outputs": [
        {
          "internalType": "uint256",
          "name": "",
          "type": "uint256"
        }
      ],
      "stateMutability": "view",
      "type": "function",
      "constant": true
    }
  ],
  "bytecode": "0x60806040523480156200001157600080fd5b5060006001819055604080518082018252600581526420a226a4a760d91b6020808301918252338552600290529190922091516200005192919062000058565b5062000145565b8280546200006690620000fe565b90600052602060002090601f0160209004810192826200008a5760008555620000d5565b82601f10620000a557805160ff1916838001178555620000d5565b82800160010185558215620000d5579182015b82811115620000d5578251825591602001919060010190620000b8565b50620000e3929150620000e7565b5090565b5b80821115620000e35760008155600101620000e8565b6002810460018216806200011357607f821691505b602082108114156200012957620001296200012f565b50919050565b634e487b7160e01b600052602260045260246000fd5b6121f780620001556000396000f3fe6080604052600436106100dd5760003560e01c806388d582781161007f578063bd73ec6211610059578063bd73ec621461024a578063ca7dd3751461025d578063e0f6ef871461028a578063e9300c6c1461029f576100dd565b806388d58278146101b757806392cdfcd5146101e7578063b1388c8e14610218576100dd565b806339be643e116100bb57806339be643e1461012a57806374d5e1001461013d5780637acc0b201461017357806380478979146101a4576100dd565b806305c20269146100e25780630ea126f9146100f757806338e76a0314610117575b600080fd5b6100f56100f03660046116f2565b6102bf565b005b34801561010357600080fd5b506100f561011236600461163b565b61050f565b6100f56101253660046116d4565b6105e6565b6100f56101383660046116f2565b610775565b34801561014957600080fd5b5061015d61015836600461161d565b6109ac565b60405161016a9190611d53565b60405180910390f35b34801561017f57600080fd5b5061019361018e3660046116d4565b610a46565b60405161016a959493929190611f08565b6100f56101b23660046116f2565b610bc3565b3480156101c357600080fd5b506101d76101d23660046116d4565b610e2a565b60405161016a9493929190611f54565b3480156101f357600080fd5b506102076102023660046116d4565b610e55565b60405161016a959493929190611eb5565b34801561022457600080fd5b506102386102333660046116d4565b610f31565b60405161016a96959493929190611cd1565b6100f56102583660046116f2565b610f7f565b34801561026957600080fd5b5061027d6102783660046116d4565b6111b9565b60405161016a9190611e54565b34801561029657600080fd5b5061027d61120f565b3480156102ab57600080fd5b506100f56102ba36600461168d565b611215565b33600090815260026020526040812080546102d9906120a2565b9050116103015760405162461bcd60e51b81526004016102f890611d94565b60405180910390fd5b604080518082018252600b81526a2224a9aa2924a12aaa27a960a91b602091820152336000908152600290915281902090517f85faced7bde13e1a7dad704b895f006e704f207617d68166b31ba2d79624862d9161035e91611cc5565b6040518091039020146103835760405162461bcd60e51b81526004016102f890611de4565b6000828152602081905260409020600e015460ff166002146103b75760405162461bcd60e51b81526004016102f890611e44565b6000828152602081905260409020600b01543410156103e85760405162461bcd60e51b81526004016102f890611e14565b6000828152602081905260408082206006810154600b9091015491516001600160a01b039091169282156108fc02929190818181858888f19350505050158015610436573d6000803e3d6000fd5b50600082815260208190526040908190206007810180546001600160a01b03191633908117909155600c8201849055600e8201805460ff191660039081179091558201805461ff00191690556006820154600b9092015492516000805160206121a2833981519152936104b2936001600160a01b031691611d2b565b60405180910390a16000805160206121628339815191528233836040516104db93929190611e62565b60405180910390a1600080516020612182833981519152826003604051610503929190611f89565b60405180910390a15050565b604080518082018252600581526420a226a4a760d91b602091820152336000908152600290915281902090517fdf8b4c520ffe197c5343c6f5aec59570151ef9a492f2c624fd45ddde6135ec429161056691611cc5565b6040518091039020148061059c57506001600160a01b03821660009081526002602052604090208054610598906120a2565b1590505b6105b85760405162461bcd60e51b81526004016102f890611e34565b6001600160a01b038216600090815260026020908152604090912082516105e192840190611501565b505050565b60008181526020819052604090206003015460ff166106175760405162461bcd60e51b81526004016102f890611d74565b6000818152602081905260409020600e015460ff1660041461064b5760405162461bcd60e51b81526004016102f890611df4565b6000818152602081905260409020600d015434101561067c5760405162461bcd60e51b81526004016102f890611dc4565b6000818152602081905260408082206008810154600d9091015491516001600160a01b039091169282156108fc02929190818181858888f193505050501580156106ca573d6000803e3d6000fd5b50600081815260208190526040908190206009810180546001600160a01b03191633908117909155600e8201805460ff1916600517905560038201805461ff0019166101001790556008820154600d9092015492516000805160206121a283398151915293610742936001600160a01b031691611d2b565b60405180910390a160008051602061218283398151915281600560405161076a929190611f89565b60405180910390a150565b336000908152600260205260408120805461078f906120a2565b9050116107ae5760405162461bcd60e51b81526004016102f890611d94565b60408051808201825260088152672922aa20a4a622a960c11b602091820152336000908152600290915281902090517f27d5ccc46db01bfa5691ce092fe276221c6cd0aa6d05765b52c3ddecfa70421a9161080891611cc5565b60405180910390201461082d5760405162461bcd60e51b81526004016102f890611d64565b6000828152602081905260409020600e015460ff166003146108615760405162461bcd60e51b81526004016102f890611e44565b6000828152602081905260409020600c01543410156108925760405162461bcd60e51b81526004016102f890611e24565b6000828152602081905260408082206007810154600c9091015491516001600160a01b039091169282156108fc02929190818181858888f193505050501580156108e0573d6000803e3d6000fd5b50600082815260208190526040908190206008810180546001600160a01b03191633908117909155600d8201849055600e8201805460ff1916600417905560038201805461ff00191690556007820154600c9092015492516000805160206121a28339815191529361095b936001600160a01b031691611d2b565b60405180910390a160008051602061216283398151915282338360405161098493929190611e62565b60405180910390a1600080516020612182833981519152826004604051610503929190611f89565b600260205260009081526040902080546109c5906120a2565b80601f01602080910402602001604051908101604052809291908181526020018280546109f1906120a2565b8015610a3e5780601f10610a1357610100808354040283529160200191610a3e565b820191906000526020600020905b815481529060010190602001808311610a2157829003601f168201915b505050505081565b60006020819052908152604090819020805482516080810190935260018201805491939182908290610a77906120a2565b80601f0160208091040260200160405190810160405280929190818152602001828054610aa3906120a2565b8015610af05780601f10610ac557610100808354040283529160200191610af0565b820191906000526020600020905b815481529060010190602001808311610ad357829003601f168201915b5050509183525050600182015460208083019190915260029092015460ff808216151560408085019190915261010090920481161515606093840152815160c08101835260048701546001600160a01b03908116825260058801548116828701526006880154811682850152600788015481168286015260088801548116608080840191909152600989015490911660a083015283519081018452600a8801548152600b88015495810195909552600c87015492850192909252600d86015492840192909252600e909401549293921685565b3360009081526002602052604081208054610bdd906120a2565b905011610bfc5760405162461bcd60e51b81526004016102f890611d94565b604080518082018252600981526821a7a62622a1aa27a960b91b602091820152336000908152600290915281902090517fcbce9983fcd5fc099294db3138f1660107f2bd5b23b9fa0002d7df1db9d854cb91610c5791611cc5565b604051809103902014610c7c5760405162461bcd60e51b81526004016102f890611db4565b60008281526020819052604090206003015460ff16610cad5760405162461bcd60e51b81526004016102f890611d74565b6000828152602081905260409020600e015460ff1615610cdf5760405162461bcd60e51b81526004016102f890611e44565b600082815260208190526040902060020154341015610d105760405162461bcd60e51b81526004016102f890611e04565b600082815260208190526040808220600481015460029091015491516001600160a01b039091169282156108fc02929190818181858888f19350505050158015610d5e573d6000803e3d6000fd5b50600082815260208190526040908190206005810180546001600160a01b03191633908117909155600a8201849055600e8201805460ff1916600117905560038201805461ff0019169055600482015460029092015492516000805160206121a283398151915293610dd9936001600160a01b031691611d2b565b60405180910390a1600080516020612162833981519152823383604051610e0293929190611e62565b60405180910390a1600080516020612182833981519152826001604051610503929190611f89565b6000908152602081905260409020600a810154600b820154600c830154600d90930154919390929190565b600081815260208190526040812080546002820154600e83015460038401546001850180546060968896879687969295919493909260ff9081169216908490610e9d906120a2565b80601f0160208091040260200160405190810160405280929190818152602001828054610ec9906120a2565b8015610f165780601f10610eeb57610100808354040283529160200191610f16565b820191906000526020600020905b815481529060010190602001808311610ef957829003601f168201915b50505050509350955095509550955095505091939590929450565b6000908152602081905260409020600481015460058201546006830154600784015460088501546009909501546001600160a01b039485169693851695928516949182169392821692911690565b3360009081526002602052604081208054610f99906120a2565b905011610fb85760405162461bcd60e51b81526004016102f890611d94565b604080518082018252600b81526a2a2920a729a827a92a22a960a91b602091820152336000908152600290915281902090517f7c2d301983a60156b882648bf1c7210b103e1d4715ba229e6182e4f8ecd987be9161101591611cc5565b60405180910390201461103a5760405162461bcd60e51b81526004016102f890611dd4565b6000828152602081905260409020600e015460ff1660011461106e5760405162461bcd60e51b81526004016102f890611e44565b6000828152602081905260409020600a015434101561109f5760405162461bcd60e51b81526004016102f890611da4565b6000828152602081905260408082206005810154600a9091015491516001600160a01b039091169282156108fc02929190818181858888f193505050501580156110ed573d6000803e3d6000fd5b50600082815260208190526040908190206006810180546001600160a01b03191633908117909155600b8201849055600e8201805460ff1916600217905560038201805461ff00191690556005820154600a9092015492516000805160206121a283398151915293611168936001600160a01b031691611d2b565b60405180910390a160008051602061216283398151915282338360405161119193929190611e62565b60405180910390a1600080516020612182833981519152826002604051610503929190611f89565b6000818152602081905260408120600d810154600c820154600b830154600a84015460028501546111ea9190612017565b6111f49190612017565b6111fe9190612017565b6112089190612017565b9392505050565b60015481565b336000908152600260205260408120805461122f906120a2565b90501161124e5760405162461bcd60e51b81526004016102f890611d94565b60408051808201825260068152652320a926a2a960d11b602091820152336000908152600290915281902090517ff309ffc42715a0bfccdfa0c4cac305505f15ab9b9262b7451ceea96c0cc35187916112a691611cc5565b6040518091039020146112cb5760405162461bcd60e51b81526004016102f890611d84565b600180549060006112db836120cf565b909155505060408051608080820183528482526020808301859052600183850181905260006060808601829052865160c08101885233815280850183905280880183905280820183905280860183905260a080820184905288518088018a52848152808701859052808a0185905280840185905289519182018a5285548083528288018a8152838c01859052948301829052978201859052968452838652979092208751815590518051805197989397939592949193918501926113a492849290910190611501565b506020828101516001808401919091556040808501516002909401805460609687015115156101000261ff001996151560ff1992831617969096169590951790558681015180516004880180546001600160a01b039283166001600160a01b0319918216179091558286015160058a0180549184169183169190911790558284015160068a0180549184169183169190911790558288015160078a01805491841691831691909117905560808084015160088b01805491851691841691909117905560a09093015160098a018054919093169116179055878601518051600a89015593840151600b88015583820151600c8801559290940151600d860155940151600e909301805460ff949094169390911692909217909155905490517f2e87df3c8f53fb06266ed52023929f5fab9f24130224ef6538b665d9cac82530916114f291889088903390611e70565b60405180910390a15050505050565b82805461150d906120a2565b90600052602060002090601f01602090048101928261152f5760008555611575565b82601f1061154857805160ff1916838001178555611575565b82800160010185558215611575579182015b8281111561157557825182559160200191906001019061155a565b50611581929150611585565b5090565b5b808211156115815760008155600101611586565b60006115ad6115a884611fce565b611fa4565b9050828152602081018484840111156115c557600080fd5b6115d084828561206a565b509392505050565b80356115e381612141565b92915050565b600082601f8301126115fa57600080fd5b813561160a84826020860161159a565b949350505050565b80356115e381612158565b60006020828403121561162f57600080fd5b600061160a84846115d8565b6000806040838503121561164e57600080fd5b600061165a85856115d8565b925050602083013567ffffffffffffffff81111561167757600080fd5b611683858286016115e9565b9150509250929050565b600080604083850312156116a057600080fd5b823567ffffffffffffffff8111156116b757600080fd5b6116c3858286016115e9565b925050602061168385828601611612565b6000602082840312156116e657600080fd5b600061160a8484611612565b6000806040838503121561170557600080fd5b60006116c38585611612565b61171a81612045565b82525050565b61171a81612050565b60008154611736816120a2565b6117408186612009565b9450600182168015611759576001811461176a5761179a565b60ff1983168652818601935061179a565b61177385611ff9565b60005b8381101561179257815488820152600190910190602001611776565b838801955050505b50505092915050565b60006117ae82612005565b6117b8818561200e565b93506117c8818560208601612076565b6117d181612137565b9093019392505050565b60006117e860238361200e565b7f4f6e6c792072657461696c6572732063616e20726563656976652070726f647581526263747360e81b602082015260400192915050565b600061182d60168361200e565b75141c9bd91d58dd08191bd95cc81b9bdd08195e1a5cdd60521b815260200192915050565b600061185f60208361200e565b7f4f6e6c79206661726d6572732063616e206372656174652070726f6475637473815260200192915050565b600061189860138361200e565b72155cd95c881b9bdd081c9959da5cdd195c9959606a1b815260200192915050565b60006118c760228361200e565b7f496e73756666696369656e74207061796d656e7420666f7220636f6c6c65637481526137b960f11b602082015260400192915050565b600061190b60248361200e565b7f4f6e6c7920636f6c6c6563746f72732063616e20636f6c6c6563742070726f648152637563747360e01b602082015260400192915050565b600061195160218361200e565b7f496e73756666696369656e74207061796d656e7420666f722072657461696c658152603960f91b602082015260400192915050565b600061199460288361200e565b7f4f6e6c79207472616e73706f72746572732063616e207472616e73706f72742081526770726f647563747360c01b602082015260400192915050565b60006119de60268361200e565b7f4f6e6c79206469737472696275746f72732063616e20726563656976652070728152656f647563747360d01b602082015260400192915050565b6000611a2660228361200e565b7f50726f64756374206e6f7420617661696c61626c6520666f7220707572636861815261736560f01b602082015260400192915050565b6000611a6a601f8361200e565b7f496e73756666696369656e74207061796d656e7420666f72206661726d657200815260200192915050565b6000611aa360248361200e565b7f496e73756666696369656e74207061796d656e7420666f72207472616e73706f815263393a32b960e11b602082015260400192915050565b6000611ae960248361200e565b7f496e73756666696369656e74207061796d656e7420666f7220646973747269628152633aba37b960e11b602082015260400192915050565b6000611b2f60278361200e565b7f556e617574686f72697a6564206f72207573657220616c7265616479207265678152661a5cdd195c995960ca1b602082015260400192915050565b6000611b78601c8361200e565b7f50726f64756374206e6f7420696e20636f727265637420737461746500000000815260200192915050565b805160c0830190611bb58482611711565b506020820151611bc86020850182611711565b506040820151611bdb6040850182611711565b506060820151611bee6060850182611711565b506080820151611c016080850182611711565b5060a0820151611c1460a0850182611711565b50505050565b8051608080845260009190840190611c3282826117a3565b9150506020830151611c476020860182611cb3565b506040830151611c5a6040860182611720565b5060608301516115d06060860182611720565b80516080830190611c7e8482611cb3565b506020820151611c916020850182611cb3565b506040820151611ca46040850182611cb3565b506060820151611c1460608501825b61171a81612061565b61171a81612064565b60006112088284611729565b60c08101611cdf8289611711565b611cec6020830188611711565b611cf96040830187611711565b611d066060830186611711565b611d136080830185611711565b611d2060a0830184611711565b979650505050505050565b60608101611d398286611711565b611d466020830185611711565b61160a6040830184611cb3565b6020808252810161120881846117a3565b602080825281016115e3816117db565b602080825281016115e381611820565b602080825281016115e381611852565b602080825281016115e38161188b565b602080825281016115e3816118ba565b602080825281016115e3816118fe565b602080825281016115e381611944565b602080825281016115e381611987565b602080825281016115e3816119d1565b602080825281016115e381611a19565b602080825281016115e381611a5d565b602080825281016115e381611a96565b602080825281016115e381611adc565b602080825281016115e381611b22565b602080825281016115e381611b6b565b602081016115e38284611cb3565b60608101611d398286611cb3565b60808101611e7e8287611cb3565b8181036020830152611e9081866117a3565b9050611e9f6040830185611cb3565b611eac6060830184611711565b95945050505050565b60a08101611ec38288611cb3565b8181036020830152611ed581876117a3565b9050611ee46040830186611cb3565b611ef16060830185611cbc565b611efe6080830184611720565b9695505050505050565b6101a08101611f178288611cb3565b8181036020830152611f298187611c1a565b9050611f386040830186611ba4565b611f46610100830185611c6d565b611efe610180830184611cbc565b60808101611f628287611cb3565b611f6f6020830186611cb3565b611f7c6040830185611cb3565b611eac6060830184611cb3565b60408101611f978285611cb3565b6112086020830184611cbc565b60405181810167ffffffffffffffff81118282101715611fc657611fc6612121565b604052919050565b600067ffffffffffffffff821115611fe857611fe8612121565b506020601f91909101601f19160190565b60009081526020902090565b5190565b919050565b90815260200190565b600061202282612061565b915061202d83612061565b92508219821115612040576120406120f5565b500190565b60006115e382612055565b151590565b6001600160a01b031690565b90565b60ff1690565b82818337506000910152565b60005b83811015612091578181015183820152602001612079565b83811115611c145750506000910152565b6002810460018216806120b657607f821691505b602082108114156120c9576120c961210b565b50919050565b60006120da82612061565b91506000198214156120ee576120ee6120f5565b5060010190565b634e487b7160e01b600052601160045260246000fd5b634e487b7160e01b600052602260045260246000fd5b634e487b7160e01b600052604160045260246000fd5b601f01601f191690565b61214a81612045565b811461215557600080fd5b50565b61214a8161206156fe05d9553e7dc480ca9d0dcd5a80f1b6696cdb7c57090687f84eca11ac2d8f5f27df7efc9f6f5bce44cbf5db3d8362387f6d02e0566c37fb4ed10cd3d05b35ecad0538ab32a957d2b55d0ec70a4029e73fdf19f500832839b1d7bafcfbca2a5630a2646970667358221220dc59707e10044e1cb7cea4498936edc62e7707fd85fdb9c4b45104293840256e64736f6c63430008000033",
  "immutableReferences": {},
  "source": "//SPDX-License-Identifier: MIT\r\n// pragma solidity ^0.8.0;\r\n\r\n// contract AgriSupplyChain {\r\n// enum ProductState { Created, CollectedByCollector, WithTransporter, WithDistributor, WithRetailer, Sold }\r\n    \r\n//     struct Product {\r\n//         uint256 id;\r\n//         string name;\r\n//         uint256 price;\r\n//         address farmer;\r\n//         address collector;\r\n//         address transporter;\r\n//         address distributor;\r\n//         address retailer;\r\n//         address consumer;\r\n//         ProductState state;\r\n//         bool isValid;\r\n//     }\r\n    \r\n//     mapping(uint256 => Product) public products;\r\n//     uint256 public productCount;\r\n    \r\n//     mapping(address => string) public userRoles;\r\n    \r\n//     event ProductCreated(uint256 productId, string name, uint256 price, address farmer);\r\n//     event ProductStateChanged(uint256 productId, ProductState newState);\r\n    \r\n//     // Modified constructor\r\n//     constructor() {\r\n//     productCount = 0;\r\n//     userRoles[msg.sender] = \"ADMIN\";\r\n//     assert(bytes(userRoles[msg.sender]).length > 0); // Debug assertion\r\n// }\r\n\r\n    \r\n//     function registerUser(address _user, string memory _role) public {\r\n//         // Allow only admin or empty role to register\r\n//         require(\r\n//             keccak256(bytes(userRoles[msg.sender])) == keccak256(bytes(\"ADMIN\")) || \r\n//             bytes(userRoles[_user]).length == 0,\r\n//             \"Unauthorized or user already registered\"\r\n//         );\r\n//         userRoles[_user] = _role;\r\n//     }\r\n    \r\n//     function createProduct(string memory _name, uint256 _price) public {\r\n//         require(bytes(userRoles[msg.sender]).length > 0, \"User not registered\");\r\n//         require(keccak256(bytes(userRoles[msg.sender])) == keccak256(bytes(\"FARMER\")), \"Only farmers can create products\");\r\n        \r\n//         productCount++;\r\n//         products[productCount] = Product(\r\n//             productCount,\r\n//             _name,\r\n//             _price,\r\n//             msg.sender,\r\n//             address(0),\r\n//             address(0),\r\n//             address(0),\r\n//             address(0),\r\n//             address(0),\r\n//             ProductState.Created,\r\n//             true\r\n//         );\r\n        \r\n//         emit ProductCreated(productCount, _name, _price, msg.sender);\r\n//     }\r\n    \r\n//     function collectProduct(uint256 _productId) public {\r\n//         require(bytes(userRoles[msg.sender]).length > 0, \"User not registered\");\r\n//         require(keccak256(bytes(userRoles[msg.sender])) == keccak256(bytes(\"COLLECTOR\")), \"Only collectors can collect products\");\r\n//         require(products[_productId].isValid, \"Product does not exist\");\r\n//         require(products[_productId].state == ProductState.Created, \"Product not in correct state\");\r\n        \r\n//         products[_productId].collector = msg.sender;\r\n//         products[_productId].state = ProductState.CollectedByCollector;\r\n        \r\n//         emit ProductStateChanged(_productId, ProductState.CollectedByCollector);\r\n//     }\r\n    \r\n//     function transportProduct(uint256 _productId) public {\r\n//         require(bytes(userRoles[msg.sender]).length > 0, \"User not registered\");\r\n//         require(keccak256(bytes(userRoles[msg.sender])) == keccak256(bytes(\"TRANSPORTER\")), \"Only transporters can transport products\");\r\n//         require(products[_productId].state == ProductState.CollectedByCollector, \"Product not in correct state\");\r\n        \r\n//         products[_productId].transporter = msg.sender;\r\n//         products[_productId].state = ProductState.WithTransporter;\r\n        \r\n//         emit ProductStateChanged(_productId, ProductState.WithTransporter);\r\n//     }\r\n    \r\n//     function distributeProduct(uint256 _productId) public {\r\n//         require(bytes(userRoles[msg.sender]).length > 0, \"User not registered\");\r\n//         require(keccak256(bytes(userRoles[msg.sender])) == keccak256(bytes(\"DISTRIBUTOR\")), \"Only distributors can receive products\");\r\n//         require(products[_productId].state == ProductState.WithTransporter, \"Product not in correct state\");\r\n        \r\n//         products[_productId].distributor = msg.sender;\r\n//         products[_productId].state = ProductState.WithDistributor;\r\n        \r\n//         emit ProductStateChanged(_productId, ProductState.WithDistributor);\r\n//     }\r\n    \r\n//     function sendToRetailer(uint256 _productId) public {\r\n//         require(bytes(userRoles[msg.sender]).length > 0, \"User not registered\");\r\n//         require(keccak256(bytes(userRoles[msg.sender])) == keccak256(bytes(\"RETAILER\")), \"Only retailers can receive products\");\r\n//         require(products[_productId].state == ProductState.WithDistributor, \"Product not in correct state\");\r\n        \r\n//         products[_productId].retailer = msg.sender;\r\n//         products[_productId].state = ProductState.WithRetailer;\r\n        \r\n//         emit ProductStateChanged(_productId, ProductState.WithRetailer);\r\n//     }\r\n    \r\n//     function purchaseProduct(uint256 _productId) public {\r\n//         require(products[_productId].state == ProductState.WithRetailer, \"Product not available for purchase\");\r\n//         require(products[_productId].isValid, \"Product does not exist\");\r\n        \r\n//         products[_productId].consumer = msg.sender;\r\n//         products[_productId].state = ProductState.Sold;\r\n        \r\n//         emit ProductStateChanged(_productId, ProductState.Sold);\r\n//     }\r\n    \r\n//     function getProduct(uint256 _productId) public view returns (\r\n//         uint256 id,\r\n//         string memory name,\r\n//         uint256 price,\r\n//         address farmer,\r\n//         address collector,\r\n//         address transporter,\r\n//         address distributor,\r\n//         address retailer,\r\n//         address consumer,\r\n//         ProductState state\r\n//     ) {\r\n//         Product memory product = products[_productId];\r\n//         return (\r\n//             product.id,\r\n//             product.name,\r\n//             product.price,\r\n//             product.farmer,\r\n//             product.collector,\r\n//             product.transporter,\r\n//             product.distributor,\r\n//             product.retailer,\r\n//             product.consumer,\r\n//             product.state\r\n//         );\r\n//     }\r\n// }\r\n\r\n\r\n\r\n\r\n\r\n\r\n\r\n\r\n\r\n// pragma solidity ^0.8.0;\r\n\r\n// contract AgriSupplyChain {\r\n//     enum ProductState { Created, CollectedByCollector, WithTransporter, WithDistributor, WithRetailer, Sold }\r\n    \r\n//     struct Product {\r\n//         uint256 id;\r\n//         string name;\r\n//         uint256 price;\r\n//         address payable farmer;\r\n//         address payable collector;\r\n//         address payable transporter;\r\n//         address payable distributor;\r\n//         address payable retailer;\r\n//         address consumer;\r\n//         ProductState state;\r\n//         bool isValid;\r\n//         uint256 transporterFee;\r\n//         uint256 distributorFee;\r\n//         uint256 retailerFee;\r\n//     }\r\n    \r\n//     mapping(uint256 => Product) public products;\r\n//     uint256 public productCount;\r\n//     mapping(address => string) public userRoles;\r\n    \r\n//     event ProductCreated(uint256 productId, string name, uint256 price, address farmer);\r\n//     event ProductStateChanged(uint256 productId, ProductState newState);\r\n//     event PaymentMade(uint256 productId, address from, address to, uint256 amount);\r\n    \r\n//     constructor() {\r\n//         productCount = 0;\r\n//         userRoles[msg.sender] = \"ADMIN\";\r\n//     }\r\n    \r\n//     // Split the getProduct function into multiple smaller functions\r\n//     function getProductBasics(uint256 _productId) public view returns (\r\n//         uint256 id,\r\n//         string memory name,\r\n//         uint256 price,\r\n//         ProductState state\r\n//     ) {\r\n//         Product storage product = products[_productId];\r\n//         return (product.id, product.name, product.price, product.state);\r\n//     }\r\n\r\n//     function getProductParticipants(uint256 _productId) public view returns (\r\n//         address farmer,\r\n//         address collector,\r\n//         address transporter,\r\n//         address distributor,\r\n//         address retailer\r\n//     ) {\r\n//         Product storage product = products[_productId];\r\n//         return (\r\n//             product.farmer,\r\n//             product.collector,\r\n//             product.transporter,\r\n//             product.distributor,\r\n//             product.retailer\r\n//         );\r\n//     }\r\n\r\n//     function getProductFees(uint256 _productId) public view returns (\r\n//         uint256 transporterFee,\r\n//         uint256 distributorFee,\r\n//         uint256 retailerFee\r\n//     ) {\r\n//         Product storage product = products[_productId];\r\n//         return (\r\n//             product.transporterFee,\r\n//             product.distributorFee,\r\n//             product.retailerFee\r\n//         );\r\n//     }\r\n\r\n//     function getProductStatus(uint256 _productId) public view returns (\r\n//         bool isValid,\r\n//         address consumer,\r\n//         ProductState state\r\n//     ) {\r\n//         Product storage product = products[_productId];\r\n//         return (\r\n//             product.isValid,\r\n//             product.consumer,\r\n//             product.state\r\n//         );\r\n//     }\r\n    \r\n//     function registerUser(address _user, string memory _role) public {\r\n//         require(\r\n//             keccak256(bytes(userRoles[msg.sender])) == keccak256(bytes(\"ADMIN\")) || \r\n//             bytes(userRoles[_user]).length == 0,\r\n//             \"Unauthorized or user already registered\"\r\n//         );\r\n//         userRoles[_user] = _role;\r\n//     }\r\n    \r\n//     function createProduct(\r\n//         string memory _name, \r\n//         uint256 _price,\r\n//         uint256 _transporterFee,\r\n//         uint256 _distributorFee,\r\n//         uint256 _retailerFee\r\n//     ) public {\r\n//         require(bytes(userRoles[msg.sender]).length > 0, \"User not registered\");\r\n//         require(keccak256(bytes(userRoles[msg.sender])) == keccak256(bytes(\"FARMER\")), \"Only farmers can create products\");\r\n        \r\n//         productCount++;\r\n//         products[productCount] = Product(\r\n//             productCount,\r\n//             _name,\r\n//             _price,\r\n//             payable(msg.sender),\r\n//             payable(address(0)),\r\n//             payable(address(0)),\r\n//             payable(address(0)),\r\n//             payable(address(0)),\r\n//             address(0),\r\n//             ProductState.Created,\r\n//             true,\r\n//             _transporterFee,\r\n//             _distributorFee,\r\n//             _retailerFee\r\n//         );\r\n        \r\n//         emit ProductCreated(productCount, _name, _price, msg.sender);\r\n//     }\r\n    \r\n//     function collectProduct(uint256 _productId) public payable {\r\n//         require(bytes(userRoles[msg.sender]).length > 0, \"User not registered\");\r\n//         require(keccak256(bytes(userRoles[msg.sender])) == keccak256(bytes(\"COLLECTOR\")), \"Only collectors can collect products\");\r\n//         require(products[_productId].isValid, \"Product does not exist\");\r\n//         require(products[_productId].state == ProductState.Created, \"Product not in correct state\");\r\n//         require(msg.value == products[_productId].price, \"Incorrect payment amount\");\r\n        \r\n//         Product storage product = products[_productId];\r\n//         product.collector = payable(msg.sender);\r\n//         product.state = ProductState.CollectedByCollector;\r\n        \r\n//         product.farmer.transfer(msg.value);\r\n        \r\n//         emit PaymentMade(_productId, msg.sender, product.farmer, msg.value);\r\n//         emit ProductStateChanged(_productId, ProductState.CollectedByCollector);\r\n//     }\r\n    \r\n//     function transportProduct(uint256 _productId) public payable {\r\n//         require(bytes(userRoles[msg.sender]).length > 0, \"User not registered\");\r\n//         require(keccak256(bytes(userRoles[msg.sender])) == keccak256(bytes(\"TRANSPORTER\")), \"Only transporters can transport products\");\r\n//         require(products[_productId].state == ProductState.CollectedByCollector, \"Product not in correct state\");\r\n//         require(msg.value == products[_productId].transporterFee, \"Incorrect transporter fee\");\r\n        \r\n//         Product storage product = products[_productId];\r\n//         product.transporter = payable(msg.sender);\r\n//         product.state = ProductState.WithTransporter;\r\n        \r\n//         product.collector.transfer(msg.value);\r\n        \r\n//         emit PaymentMade(_productId, msg.sender, product.collector, msg.value);\r\n//         emit ProductStateChanged(_productId, ProductState.WithTransporter);\r\n//     }\r\n    \r\n//     function distributeProduct(uint256 _productId) public payable {\r\n//         require(bytes(userRoles[msg.sender]).length > 0, \"User not registered\");\r\n//         require(keccak256(bytes(userRoles[msg.sender])) == keccak256(bytes(\"DISTRIBUTOR\")), \"Only distributors can receive products\");\r\n//         require(products[_productId].state == ProductState.WithTransporter, \"Product not in correct state\");\r\n//         require(msg.value == products[_productId].distributorFee, \"Incorrect distributor fee\");\r\n        \r\n//         Product storage product = products[_productId];\r\n//         product.distributor = payable(msg.sender);\r\n//         product.state = ProductState.WithDistributor;\r\n        \r\n//         product.transporter.transfer(msg.value);\r\n        \r\n//         emit PaymentMade(_productId, msg.sender, product.transporter, msg.value);\r\n//         emit ProductStateChanged(_productId, ProductState.WithDistributor);\r\n//     }\r\n    \r\n//     function sendToRetailer(uint256 _productId) public payable {\r\n//         require(bytes(userRoles[msg.sender]).length > 0, \"User not registered\");\r\n//         require(keccak256(bytes(userRoles[msg.sender])) == keccak256(bytes(\"RETAILER\")), \"Only retailers can receive products\");\r\n//         require(products[_productId].state == ProductState.WithDistributor, \"Product not in correct state\");\r\n//         require(msg.value == products[_productId].retailerFee, \"Incorrect retailer fee\");\r\n        \r\n//         Product storage product = products[_productId];\r\n//         product.retailer = payable(msg.sender);\r\n//         product.state = ProductState.WithRetailer;\r\n        \r\n//         product.distributor.transfer(msg.value);\r\n        \r\n//         emit PaymentMade(_productId, msg.sender, product.distributor, msg.value);\r\n//         emit ProductStateChanged(_productId, ProductState.WithRetailer);\r\n//     }\r\n    \r\n//     function purchaseProduct(uint256 _productId) public payable {\r\n//         require(products[_productId].state == ProductState.WithRetailer, \"Product not available for purchase\");\r\n//         require(products[_productId].isValid, \"Product does not exist\");\r\n//         require(msg.value == products[_productId].price * 2, \"Incorrect payment amount\");\r\n        \r\n//         Product storage product = products[_productId];\r\n//         product.consumer = msg.sender;\r\n//         product.state = ProductState.Sold;\r\n        \r\n//         product.retailer.transfer(msg.value);\r\n        \r\n//         emit PaymentMade(_productId, msg.sender, product.retailer, msg.value);\r\n//         emit ProductStateChanged(_productId, ProductState.Sold);\r\n//     }\r\n// }\r\n\r\n\r\n\r\n\r\n\r\n\r\npragma solidity ^0.8.0;\r\n\r\n// In AgriSupplyChain.sol\r\nimport { IAgriSupplyChain } from \"./IAgriSupplyChain.sol\";\r\nimport { ProductStructs } from \"./ProductStructs.sol\";\r\n\r\ncontract AgriSupplyChain is IAgriSupplyChain {\r\n    using ProductStructs for ProductStructs.Product;\r\n    \r\n    mapping(uint256 => ProductStructs.Product) public products;\r\n    uint256 public productCount;\r\n    mapping(address => string) public userRoles;\r\n    \r\n    uint8 constant CREATED = 0;\r\n    uint8 constant COLLECTED = 1;\r\n    uint8 constant IN_TRANSIT = 2;\r\n    uint8 constant WITH_DISTRIBUTOR = 3;\r\n    uint8 constant WITH_RETAILER = 4;\r\n    uint8 constant SOLD = 5;\r\n    \r\n    constructor() {\r\n        productCount = 0;\r\n        userRoles[msg.sender] = \"ADMIN\";\r\n    }\r\n    \r\n    function registerUser(address _user, string memory _role) public override {\r\n        require(\r\n            keccak256(bytes(userRoles[msg.sender])) == keccak256(bytes(\"ADMIN\")) || \r\n            bytes(userRoles[_user]).length == 0,\r\n            \"Unauthorized or user already registered\"\r\n        );\r\n        userRoles[_user] = _role;\r\n    }\r\n    \r\n    function createProduct(string memory _name, uint256 _basePrice) public {\r\n        require(bytes(userRoles[msg.sender]).length > 0, \"User not registered\");\r\n        require(keccak256(bytes(userRoles[msg.sender])) == keccak256(bytes(\"FARMER\")), \"Only farmers can create products\");\r\n        \r\n        productCount++;\r\n        \r\n        ProductStructs.ProductDetails memory details = ProductStructs.ProductDetails({\r\n            name: _name,\r\n            basePrice: _basePrice,\r\n            isValid: true,\r\n            isPaid: false\r\n        });\r\n        \r\n        ProductStructs.ProductActors memory actors = ProductStructs.ProductActors({\r\n            farmer: msg.sender,\r\n            collector: address(0),\r\n            transporter: address(0),\r\n            distributor: address(0),\r\n            retailer: address(0),\r\n            consumer: address(0)\r\n        });\r\n        \r\n        ProductStructs.ProductFees memory fees = ProductStructs.ProductFees({\r\n            collectorFee: 0,\r\n            transporterFee: 0,\r\n            distributorFee: 0,\r\n            retailerFee: 0\r\n        });\r\n        \r\n        products[productCount] = ProductStructs.Product({\r\n            id: productCount,\r\n            details: details,\r\n            actors: actors,\r\n            fees: fees,\r\n            state: CREATED\r\n        });\r\n        \r\n        emit ProductCreated(productCount, _name, _basePrice, msg.sender);\r\n    }\r\n    \r\n    function collectProduct(uint256 _productId, uint256 _collectorFee) public payable {\r\n        require(bytes(userRoles[msg.sender]).length > 0, \"User not registered\");\r\n        require(keccak256(bytes(userRoles[msg.sender])) == keccak256(bytes(\"COLLECTOR\")), \"Only collectors can collect products\");\r\n        require(products[_productId].details.isValid, \"Product does not exist\");\r\n        require(products[_productId].state == CREATED, \"Product not in correct state\");\r\n        require(msg.value >= products[_productId].details.basePrice, \"Insufficient payment for farmer\");\r\n        \r\n        payable(products[_productId].actors.farmer).transfer(products[_productId].details.basePrice);\r\n        \r\n        products[_productId].actors.collector = msg.sender;\r\n        products[_productId].fees.collectorFee = _collectorFee;\r\n        products[_productId].state = COLLECTED;\r\n        products[_productId].details.isPaid = false;\r\n        \r\n        emit PaymentProcessed(msg.sender, products[_productId].actors.farmer, products[_productId].details.basePrice);\r\n        emit FeeAdded(_productId, msg.sender, _collectorFee);\r\n        emit ProductStateChanged(_productId, COLLECTED);\r\n    }\r\n\r\n    function transportProduct(uint256 _productId, uint256 _transporterFee) public payable {\r\n        require(bytes(userRoles[msg.sender]).length > 0, \"User not registered\");\r\n        require(keccak256(bytes(userRoles[msg.sender])) == keccak256(bytes(\"TRANSPORTER\")), \"Only transporters can transport products\");\r\n        require(products[_productId].state == COLLECTED, \"Product not in correct state\");\r\n        require(msg.value >= products[_productId].fees.collectorFee, \"Insufficient payment for collector\");\r\n        \r\n        payable(products[_productId].actors.collector).transfer(products[_productId].fees.collectorFee);\r\n        \r\n        products[_productId].actors.transporter = msg.sender;\r\n        products[_productId].fees.transporterFee = _transporterFee;\r\n        products[_productId].state = IN_TRANSIT;\r\n        products[_productId].details.isPaid = false;\r\n        \r\n        emit PaymentProcessed(msg.sender, products[_productId].actors.collector, products[_productId].fees.collectorFee);\r\n        emit FeeAdded(_productId, msg.sender, _transporterFee);\r\n        emit ProductStateChanged(_productId, IN_TRANSIT);\r\n    }\r\n\r\n    function distributeProduct(uint256 _productId, uint256 _distributorFee) public payable {\r\n        require(bytes(userRoles[msg.sender]).length > 0, \"User not registered\");\r\n        require(keccak256(bytes(userRoles[msg.sender])) == keccak256(bytes(\"DISTRIBUTOR\")), \"Only distributors can receive products\");\r\n        require(products[_productId].state == IN_TRANSIT, \"Product not in correct state\");\r\n        require(msg.value >= products[_productId].fees.transporterFee, \"Insufficient payment for transporter\");\r\n        \r\n        payable(products[_productId].actors.transporter).transfer(products[_productId].fees.transporterFee);\r\n        \r\n        products[_productId].actors.distributor = msg.sender;\r\n        products[_productId].fees.distributorFee = _distributorFee;\r\n        products[_productId].state = WITH_DISTRIBUTOR;\r\n        products[_productId].details.isPaid = false;\r\n        \r\n        emit PaymentProcessed(msg.sender, products[_productId].actors.transporter, products[_productId].fees.transporterFee);\r\n        emit FeeAdded(_productId, msg.sender, _distributorFee);\r\n        emit ProductStateChanged(_productId, WITH_DISTRIBUTOR);\r\n    }\r\n\r\n    function sendToRetailer(uint256 _productId, uint256 _retailerFee) public payable {\r\n        require(bytes(userRoles[msg.sender]).length > 0, \"User not registered\");\r\n        require(keccak256(bytes(userRoles[msg.sender])) == keccak256(bytes(\"RETAILER\")), \"Only retailers can receive products\");\r\n        require(products[_productId].state == WITH_DISTRIBUTOR, \"Product not in correct state\");\r\n        require(msg.value >= products[_productId].fees.distributorFee, \"Insufficient payment for distributor\");\r\n        \r\n        payable(products[_productId].actors.distributor).transfer(products[_productId].fees.distributorFee);\r\n        \r\n        products[_productId].actors.retailer = msg.sender;\r\n        products[_productId].fees.retailerFee = _retailerFee;\r\n        products[_productId].state = WITH_RETAILER;\r\n        products[_productId].details.isPaid = false;\r\n        \r\n        emit PaymentProcessed(msg.sender, products[_productId].actors.distributor, products[_productId].fees.distributorFee);\r\n        emit FeeAdded(_productId, msg.sender, _retailerFee);\r\n        emit ProductStateChanged(_productId, WITH_RETAILER);\r\n    }\r\n\r\n    function purchaseProduct(uint256 _productId) public payable {\r\n        require(products[_productId].details.isValid, \"Product does not exist\");\r\n        require(products[_productId].state == WITH_RETAILER, \"Product not available for purchase\");\r\n        require(msg.value >= products[_productId].fees.retailerFee, \"Insufficient payment for retailer\");\r\n        \r\n        payable(products[_productId].actors.retailer).transfer(products[_productId].fees.retailerFee);\r\n        \r\n        products[_productId].actors.consumer = msg.sender;\r\n        products[_productId].state = SOLD;\r\n        products[_productId].details.isPaid = true;\r\n        \r\n        emit PaymentProcessed(msg.sender, products[_productId].actors.retailer, products[_productId].fees.retailerFee);\r\n        emit ProductStateChanged(_productId, SOLD);\r\n    }\r\n    \r\n    function getProductBasicInfo(uint256 _productId) public view override returns (\r\n        uint256 id,\r\n        string memory name,\r\n        uint256 basePrice,\r\n        uint8 state,\r\n        bool isValid\r\n    ) {\r\n        ProductStructs.Product storage product = products[_productId];\r\n        return (\r\n            product.id,\r\n            product.details.name,\r\n            product.details.basePrice,\r\n            product.state,\r\n            product.details.isValid\r\n        );\r\n    }\r\n    \r\n    function getProductFees(uint256 _productId) public view override returns (\r\n        uint256 collectorFee,\r\n        uint256 transporterFee,\r\n        uint256 distributorFee,\r\n        uint256 retailerFee\r\n    ) {\r\n        ProductStructs.ProductFees storage fees = products[_productId].fees;\r\n        return (\r\n            fees.collectorFee,\r\n            fees.transporterFee,\r\n            fees.distributorFee,\r\n            fees.retailerFee\r\n        );\r\n    }\r\n    \r\n    function getProductActors(uint256 _productId) public view override returns (\r\n        address farmer,\r\n        address collector,\r\n        address transporter,\r\n        address distributor,\r\n        address retailer,\r\n        address consumer\r\n    ) {\r\n        ProductStructs.ProductActors storage actors = products[_productId].actors;\r\n        return (\r\n            actors.farmer,\r\n            actors.collector,\r\n            actors.transporter,\r\n            actors.distributor,\r\n            actors.retailer,\r\n            actors.consumer\r\n        );\r\n    }\r\n    \r\n    function getTotalPrice(uint256 _productId) public view returns (uint256) {\r\n        ProductStructs.Product storage product = products[_productId];\r\n        return product.details.basePrice +\r\n               product.fees.collectorFee +\r\n               product.fees.transporterFee +\r\n               product.fees.distributorFee +\r\n               product.fees.retailerFee;\r\n    }\r\n}",
  "sourcePath": "C:\\Users\\Dell\\OneDrive\\Desktop\\agriculture-supply-chain\\contracts\\AgriSupplyChain.sol",
  "compiler": {
    "name": "solc",
    "version": "0.8.0+commit.c7dfd78e.Emscripten.clang"
  },
  "schemaVersion": "3.4.16",
  "updatedAt": "2025-01-18T05:16:17.234Z",
  "networkType": "ethereum",
  "devdoc": {
    "kind": "dev",
    "methods": {},
    "version": 1
  },
  "userdoc": {
    "kind": "user",
    "methods": {},
    "version": 1
  }
}